{"abi":[{"type":"function","name":"EVM_EXTRA_ARGS_V1_TAG","inputs":[],"outputs":[{"name":"","type":"bytes4","internalType":"bytes4"}],"stateMutability":"view"},{"type":"function","name":"GENERIC_EXTRA_ARGS_V2_TAG","inputs":[],"outputs":[{"name":"","type":"bytes4","internalType":"bytes4"}],"stateMutability":"view"},{"type":"function","name":"SVM_ACCOUNT_BYTE_SIZE","inputs":[],"outputs":[{"name":"","type":"uint256","internalType":"uint256"}],"stateMutability":"view"},{"type":"function","name":"SVM_EXTRA_ARGS_MAX_ACCOUNTS","inputs":[],"outputs":[{"name":"","type":"uint256","internalType":"uint256"}],"stateMutability":"view"},{"type":"function","name":"SVM_EXTRA_ARGS_V1_TAG","inputs":[],"outputs":[{"name":"","type":"bytes4","internalType":"bytes4"}],"stateMutability":"view"},{"type":"function","name":"SVM_MESSAGING_ACCOUNTS_OVERHEAD","inputs":[],"outputs":[{"name":"","type":"uint256","internalType":"uint256"}],"stateMutability":"view"},{"type":"function","name":"SVM_TOKEN_TRANSFER_DATA_OVERHEAD","inputs":[],"outputs":[{"name":"","type":"uint256","internalType":"uint256"}],"stateMutability":"view"}],"bytecode":{"object":"0x61024c61004e600b8282823980515f1a607314610042577f4e487b71000000000000000000000000000000000000000000000000000000005f525f60045260245ffd5b305f52607381538281f3fe7300000000000000000000000000000000000000003014608060405260043610610086575f3560e01c806371953f601161006457806371953f60146100e45780637498e355146101025780639713cbbd14610120578063a5dd87d81461013e57610086565b80631ac428f81461008a5780633ab8c0d0146100a85780635dd8ee3e146100c6575b5f80fd5b61009261015c565b60405161009f91906101aa565b60405180910390f35b6100b0610161565b6040516100bd91906101fd565b60405180910390f35b6100ce61016c565b6040516100db91906101aa565b60405180910390f35b6100ec610171565b6040516100f991906101aa565b60405180910390f35b61010a610176565b60405161011791906101fd565b60405180910390f35b610128610181565b60405161013591906101aa565b60405180910390f35b610146610187565b60405161015391906101fd565b60405180910390f35b604081565b6397a657c960e01b81565b600281565b602081565b63181dcf1060e01b81565b61012c81565b631f3b3aba60e01b81565b5f819050919050565b6101a481610192565b82525050565b5f6020820190506101bd5f83018461019b565b92915050565b5f7fffffffff0000000000000000000000000000000000000000000000000000000082169050919050565b6101f7816101c3565b82525050565b5f6020820190506102105f8301846101ee565b9291505056fea2646970667358221220bfb9f30dd294ad53aab9cf408cad8aebf7ef10a5d4b245c7c9febd961e65e9f964736f6c63430008180033","linkReferences":{}},"methodIdentifiers":{"EVM_EXTRA_ARGS_V1_TAG()":"3ab8c0d0","GENERIC_EXTRA_ARGS_V2_TAG()":"7498e355","SVM_ACCOUNT_BYTE_SIZE()":"71953f60","SVM_EXTRA_ARGS_MAX_ACCOUNTS()":"1ac428f8","SVM_EXTRA_ARGS_V1_TAG()":"a5dd87d8","SVM_MESSAGING_ACCOUNTS_OVERHEAD()":"5dd8ee3e","SVM_TOKEN_TRANSFER_DATA_OVERHEAD()":"9713cbbd"},"id":7}