{"abi":[{"type":"constructor","inputs":[{"name":"_rebaseToken","type":"address","internalType":"contract IRebaseToken"}],"stateMutability":"nonpayable"},{"type":"receive","stateMutability":"payable"},{"type":"function","name":"deposit","inputs":[],"outputs":[],"stateMutability":"payable"},{"type":"function","name":"i_rebaseToken","inputs":[],"outputs":[{"name":"","type":"address","internalType":"contract IRebaseToken"}],"stateMutability":"view"},{"type":"function","name":"redeem","inputs":[{"name":"_amount","type":"uint256","internalType":"uint256"}],"outputs":[],"stateMutability":"nonpayable"},{"type":"event","name":"Deposit","inputs":[{"name":"user","type":"address","indexed":true,"internalType":"address"},{"name":"amount","type":"uint256","indexed":false,"internalType":"uint256"}],"anonymous":false},{"type":"event","name":"Redeem","inputs":[{"name":"user","type":"address","indexed":true,"internalType":"address"},{"name":"amount","type":"uint256","indexed":false,"internalType":"uint256"}],"anonymous":false},{"type":"error","name":"Vault__RedeemFailed","inputs":[]}],"bytecode":{"object":"0x60a060405234801561000f575f80fd5b50604051610802380380610802833981810160405281019061003191906100da565b8073ffffffffffffffffffffffffffffffffffffffff1660808173ffffffffffffffffffffffffffffffffffffffff168152505050610105565b5f80fd5b5f73ffffffffffffffffffffffffffffffffffffffff82169050919050565b5f6100988261006f565b9050919050565b5f6100a98261008e565b9050919050565b6100b98161009f565b81146100c3575f80fd5b50565b5f815190506100d4816100b0565b92915050565b5f602082840312156100ef576100ee61006b565b5b5f6100fc848285016100c6565b91505092915050565b6080516106cb6101375f395f818160a00152818160c4015281816101020152818161025101526102ec01526106cb5ff3fe608060405260043610610037575f3560e01c8063922e7de114610042578063d0e30db01461006c578063db006a75146100765761003e565b3661003e57005b5f80fd5b34801561004d575f80fd5b5061005661009e565b60405161006391906104dd565b60405180910390f35b6100746100c2565b005b348015610081575f80fd5b5061009c6004803603810190610097919061052d565b610228565b005b7f000000000000000000000000000000000000000000000000000000000000000081565b7f000000000000000000000000000000000000000000000000000000000000000073ffffffffffffffffffffffffffffffffffffffff1663156e29f633347f000000000000000000000000000000000000000000000000000000000000000073ffffffffffffffffffffffffffffffffffffffff16635257b5666040518163ffffffff1660e01b8152600401602060405180830381865afa158015610169573d5f803e3d5ffd5b505050506040513d601f19601f8201168201806040525081019061018d919061056c565b6040518463ffffffff1660e01b81526004016101ab939291906105c6565b5f604051808303815f87803b1580156101c2575f80fd5b505af11580156101d4573d5f803e3d5ffd5b505050503373ffffffffffffffffffffffffffffffffffffffff167fe1fffcc4923d04b559f4d29a8bfc6cda04eb5b0d3c460751c2402c5c5cc9109c3460405161021e91906105fb565b60405180910390a2565b7fffffffffffffffffffffffffffffffffffffffffffffffffffffffffffffffff81036102ea577f000000000000000000000000000000000000000000000000000000000000000073ffffffffffffffffffffffffffffffffffffffff166370a08231336040518263ffffffff1660e01b81526004016102a89190610614565b602060405180830381865afa1580156102c3573d5f803e3d5ffd5b505050506040513d601f19601f820116820180604052508101906102e7919061056c565b90505b7f000000000000000000000000000000000000000000000000000000000000000073ffffffffffffffffffffffffffffffffffffffff16639dc29fac33836040518363ffffffff1660e01b815260040161034592919061062d565b5f604051808303815f87803b15801561035c575f80fd5b505af115801561036e573d5f803e3d5ffd5b505050505f3373ffffffffffffffffffffffffffffffffffffffff168260405161039790610681565b5f6040518083038185875af1925050503d805f81146103d1576040519150601f19603f3d011682016040523d82523d5f602084013e6103d6565b606091505b5050905080610411576040517f1f7f8e2800000000000000000000000000000000000000000000000000000000815260040160405180910390fd5b3373ffffffffffffffffffffffffffffffffffffffff167f222838db2794d11532d940e8dec38ae307ed0b63cd97c233322e221f998767a68360405161045791906105fb565b60405180910390a25050565b5f73ffffffffffffffffffffffffffffffffffffffff82169050919050565b5f819050919050565b5f6104a56104a061049b84610463565b610482565b610463565b9050919050565b5f6104b68261048b565b9050919050565b5f6104c7826104ac565b9050919050565b6104d7816104bd565b82525050565b5f6020820190506104f05f8301846104ce565b92915050565b5f80fd5b5f819050919050565b61050c816104fa565b8114610516575f80fd5b50565b5f8135905061052781610503565b92915050565b5f60208284031215610542576105416104f6565b5b5f61054f84828501610519565b91505092915050565b5f8151905061056681610503565b92915050565b5f60208284031215610581576105806104f6565b5b5f61058e84828501610558565b91505092915050565b5f6105a182610463565b9050919050565b6105b181610597565b82525050565b6105c0816104fa565b82525050565b5f6060820190506105d95f8301866105a8565b6105e660208301856105b7565b6105f360408301846105b7565b949350505050565b5f60208201905061060e5f8301846105b7565b92915050565b5f6020820190506106275f8301846105a8565b92915050565b5f6040820190506106405f8301856105a8565b61064d60208301846105b7565b9392505050565b5f81905092915050565b50565b5f61066c5f83610654565b91506106778261065e565b5f82019050919050565b5f61068b82610661565b915081905091905056fea26469706673582212203c67f7cf79ca313c8914c526870e36c972bb6e213590ed83b5afea12ff15890564736f6c63430008180033","linkReferences":{}},"methodIdentifiers":{"deposit()":"d0e30db0","i_rebaseToken()":"922e7de1","redeem(uint256)":"db006a75"},"id":66}