{"abi":[{"type":"constructor","inputs":[{"name":"token","type":"address","internalType":"contract IERC20"},{"name":"allowlist","type":"address[]","internalType":"address[]"},{"name":"rmnProxy","type":"address","internalType":"address"},{"name":"router","type":"address","internalType":"address"}],"stateMutability":"nonpayable"},{"type":"function","name":"acceptOwnership","inputs":[],"outputs":[],"stateMutability":"nonpayable"},{"type":"function","name":"addRemotePool","inputs":[{"name":"remoteChainSelector","type":"uint64","internalType":"uint64"},{"name":"remotePoolAddress","type":"bytes","internalType":"bytes"}],"outputs":[],"stateMutability":"nonpayable"},{"type":"function","name":"applyAllowListUpdates","inputs":[{"name":"removes","type":"address[]","internalType":"address[]"},{"name":"adds","type":"address[]","internalType":"address[]"}],"outputs":[],"stateMutability":"nonpayable"},{"type":"function","name":"applyChainUpdates","inputs":[{"name":"remoteChainSelectorsToRemove","type":"uint64[]","internalType":"uint64[]"},{"name":"chainsToAdd","type":"tuple[]","internalType":"struct TokenPool.ChainUpdate[]","components":[{"name":"remoteChainSelector","type":"uint64","internalType":"uint64"},{"name":"remotePoolAddresses","type":"bytes[]","internalType":"bytes[]"},{"name":"remoteTokenAddress","type":"bytes","internalType":"bytes"},{"name":"outboundRateLimiterConfig","type":"tuple","internalType":"struct RateLimiter.Config","components":[{"name":"isEnabled","type":"bool","internalType":"bool"},{"name":"capacity","type":"uint128","internalType":"uint128"},{"name":"rate","type":"uint128","internalType":"uint128"}]},{"name":"inboundRateLimiterConfig","type":"tuple","internalType":"struct RateLimiter.Config","components":[{"name":"isEnabled","type":"bool","internalType":"bool"},{"name":"capacity","type":"uint128","internalType":"uint128"},{"name":"rate","type":"uint128","internalType":"uint128"}]}]}],"outputs":[],"stateMutability":"nonpayable"},{"type":"function","name":"getAllowList","inputs":[],"outputs":[{"name":"","type":"address[]","internalType":"address[]"}],"stateMutability":"view"},{"type":"function","name":"getAllowListEnabled","inputs":[],"outputs":[{"name":"","type":"bool","internalType":"bool"}],"stateMutability":"view"},{"type":"function","name":"getCurrentInboundRateLimiterState","inputs":[{"name":"remoteChainSelector","type":"uint64","internalType":"uint64"}],"outputs":[{"name":"","type":"tuple","internalType":"struct RateLimiter.TokenBucket","components":[{"name":"tokens","type":"uint128","internalType":"uint128"},{"name":"lastUpdated","type":"uint32","internalType":"uint32"},{"name":"isEnabled","type":"bool","internalType":"bool"},{"name":"capacity","type":"uint128","internalType":"uint128"},{"name":"rate","type":"uint128","internalType":"uint128"}]}],"stateMutability":"view"},{"type":"function","name":"getCurrentOutboundRateLimiterState","inputs":[{"name":"remoteChainSelector","type":"uint64","internalType":"uint64"}],"outputs":[{"name":"","type":"tuple","internalType":"struct RateLimiter.TokenBucket","components":[{"name":"tokens","type":"uint128","internalType":"uint128"},{"name":"lastUpdated","type":"uint32","internalType":"uint32"},{"name":"isEnabled","type":"bool","internalType":"bool"},{"name":"capacity","type":"uint128","internalType":"uint128"},{"name":"rate","type":"uint128","internalType":"uint128"}]}],"stateMutability":"view"},{"type":"function","name":"getRateLimitAdmin","inputs":[],"outputs":[{"name":"","type":"address","internalType":"address"}],"stateMutability":"view"},{"type":"function","name":"getRemotePools","inputs":[{"name":"remoteChainSelector","type":"uint64","internalType":"uint64"}],"outputs":[{"name":"","type":"bytes[]","internalType":"bytes[]"}],"stateMutability":"view"},{"type":"function","name":"getRemoteToken","inputs":[{"name":"remoteChainSelector","type":"uint64","internalType":"uint64"}],"outputs":[{"name":"","type":"bytes","internalType":"bytes"}],"stateMutability":"view"},{"type":"function","name":"getRmnProxy","inputs":[],"outputs":[{"name":"rmnProxy","type":"address","internalType":"address"}],"stateMutability":"view"},{"type":"function","name":"getRouter","inputs":[],"outputs":[{"name":"router","type":"address","internalType":"address"}],"stateMutability":"view"},{"type":"function","name":"getSupportedChains","inputs":[],"outputs":[{"name":"","type":"uint64[]","internalType":"uint64[]"}],"stateMutability":"view"},{"type":"function","name":"getToken","inputs":[],"outputs":[{"name":"token","type":"address","internalType":"contract IERC20"}],"stateMutability":"view"},{"type":"function","name":"getTokenDecimals","inputs":[],"outputs":[{"name":"decimals","type":"uint8","internalType":"uint8"}],"stateMutability":"view"},{"type":"function","name":"isRemotePool","inputs":[{"name":"remoteChainSelector","type":"uint64","internalType":"uint64"},{"name":"remotePoolAddress","type":"bytes","internalType":"bytes"}],"outputs":[{"name":"","type":"bool","internalType":"bool"}],"stateMutability":"view"},{"type":"function","name":"isSupportedChain","inputs":[{"name":"remoteChainSelector","type":"uint64","internalType":"uint64"}],"outputs":[{"name":"","type":"bool","internalType":"bool"}],"stateMutability":"view"},{"type":"function","name":"isSupportedToken","inputs":[{"name":"token","type":"address","internalType":"address"}],"outputs":[{"name":"","type":"bool","internalType":"bool"}],"stateMutability":"view"},{"type":"function","name":"lockOrBurn","inputs":[{"name":"lockOrBurnIn","type":"tuple","internalType":"struct Pool.LockOrBurnInV1","components":[{"name":"receiver","type":"bytes","internalType":"bytes"},{"name":"remoteChainSelector","type":"uint64","internalType":"uint64"},{"name":"originalSender","type":"address","internalType":"address"},{"name":"amount","type":"uint256","internalType":"uint256"},{"name":"localToken","type":"address","internalType":"address"}]}],"outputs":[{"name":"lockOrBurnOut","type":"tuple","internalType":"struct Pool.LockOrBurnOutV1","components":[{"name":"destTokenAddress","type":"bytes","internalType":"bytes"},{"name":"destPoolData","type":"bytes","internalType":"bytes"}]}],"stateMutability":"nonpayable"},{"type":"function","name":"owner","inputs":[],"outputs":[{"name":"","type":"address","internalType":"address"}],"stateMutability":"view"},{"type":"function","name":"releaseOrMint","inputs":[{"name":"releaseOrMintIn","type":"tuple","internalType":"struct Pool.ReleaseOrMintInV1","components":[{"name":"originalSender","type":"bytes","internalType":"bytes"},{"name":"remoteChainSelector","type":"uint64","internalType":"uint64"},{"name":"receiver","type":"address","internalType":"address"},{"name":"amount","type":"uint256","internalType":"uint256"},{"name":"localToken","type":"address","internalType":"address"},{"name":"sourcePoolAddress","type":"bytes","internalType":"bytes"},{"name":"sourcePoolData","type":"bytes","internalType":"bytes"},{"name":"offchainTokenData","type":"bytes","internalType":"bytes"}]}],"outputs":[{"name":"","type":"tuple","internalType":"struct Pool.ReleaseOrMintOutV1","components":[{"name":"destinationAmount","type":"uint256","internalType":"uint256"}]}],"stateMutability":"nonpayable"},{"type":"function","name":"removeRemotePool","inputs":[{"name":"remoteChainSelector","type":"uint64","internalType":"uint64"},{"name":"remotePoolAddress","type":"bytes","internalType":"bytes"}],"outputs":[],"stateMutability":"nonpayable"},{"type":"function","name":"setChainRateLimiterConfig","inputs":[{"name":"remoteChainSelector","type":"uint64","internalType":"uint64"},{"name":"outboundConfig","type":"tuple","internalType":"struct RateLimiter.Config","components":[{"name":"isEnabled","type":"bool","internalType":"bool"},{"name":"capacity","type":"uint128","internalType":"uint128"},{"name":"rate","type":"uint128","internalType":"uint128"}]},{"name":"inboundConfig","type":"tuple","internalType":"struct RateLimiter.Config","components":[{"name":"isEnabled","type":"bool","internalType":"bool"},{"name":"capacity","type":"uint128","internalType":"uint128"},{"name":"rate","type":"uint128","internalType":"uint128"}]}],"outputs":[],"stateMutability":"nonpayable"},{"type":"function","name":"setChainRateLimiterConfigs","inputs":[{"name":"remoteChainSelectors","type":"uint64[]","internalType":"uint64[]"},{"name":"outboundConfigs","type":"tuple[]","internalType":"struct RateLimiter.Config[]","components":[{"name":"isEnabled","type":"bool","internalType":"bool"},{"name":"capacity","type":"uint128","internalType":"uint128"},{"name":"rate","type":"uint128","internalType":"uint128"}]},{"name":"inboundConfigs","type":"tuple[]","internalType":"struct RateLimiter.Config[]","components":[{"name":"isEnabled","type":"bool","internalType":"bool"},{"name":"capacity","type":"uint128","internalType":"uint128"},{"name":"rate","type":"uint128","internalType":"uint128"}]}],"outputs":[],"stateMutability":"nonpayable"},{"type":"function","name":"setRateLimitAdmin","inputs":[{"name":"rateLimitAdmin","type":"address","internalType":"address"}],"outputs":[],"stateMutability":"nonpayable"},{"type":"function","name":"setRouter","inputs":[{"name":"newRouter","type":"address","internalType":"address"}],"outputs":[],"stateMutability":"nonpayable"},{"type":"function","name":"supportsInterface","inputs":[{"name":"interfaceId","type":"bytes4","internalType":"bytes4"}],"outputs":[{"name":"","type":"bool","internalType":"bool"}],"stateMutability":"pure"},{"type":"function","name":"transferOwnership","inputs":[{"name":"to","type":"address","internalType":"address"}],"outputs":[],"stateMutability":"nonpayable"},{"type":"event","name":"AllowListAdd","inputs":[{"name":"sender","type":"address","indexed":false,"internalType":"address"}],"anonymous":false},{"type":"event","name":"AllowListRemove","inputs":[{"name":"sender","type":"address","indexed":false,"internalType":"address"}],"anonymous":false},{"type":"event","name":"Burned","inputs":[{"name":"sender","type":"address","indexed":true,"internalType":"address"},{"name":"amount","type":"uint256","indexed":false,"internalType":"uint256"}],"anonymous":false},{"type":"event","name":"ChainAdded","inputs":[{"name":"remoteChainSelector","type":"uint64","indexed":false,"internalType":"uint64"},{"name":"remoteToken","type":"bytes","indexed":false,"internalType":"bytes"},{"name":"outboundRateLimiterConfig","type":"tuple","indexed":false,"internalType":"struct RateLimiter.Config","components":[{"name":"isEnabled","type":"bool","internalType":"bool"},{"name":"capacity","type":"uint128","internalType":"uint128"},{"name":"rate","type":"uint128","internalType":"uint128"}]},{"name":"inboundRateLimiterConfig","type":"tuple","indexed":false,"internalType":"struct RateLimiter.Config","components":[{"name":"isEnabled","type":"bool","internalType":"bool"},{"name":"capacity","type":"uint128","internalType":"uint128"},{"name":"rate","type":"uint128","internalType":"uint128"}]}],"anonymous":false},{"type":"event","name":"ChainConfigured","inputs":[{"name":"remoteChainSelector","type":"uint64","indexed":false,"internalType":"uint64"},{"name":"outboundRateLimiterConfig","type":"tuple","indexed":false,"internalType":"struct RateLimiter.Config","components":[{"name":"isEnabled","type":"bool","internalType":"bool"},{"name":"capacity","type":"uint128","internalType":"uint128"},{"name":"rate","type":"uint128","internalType":"uint128"}]},{"name":"inboundRateLimiterConfig","type":"tuple","indexed":false,"internalType":"struct RateLimiter.Config","components":[{"name":"isEnabled","type":"bool","internalType":"bool"},{"name":"capacity","type":"uint128","internalType":"uint128"},{"name":"rate","type":"uint128","internalType":"uint128"}]}],"anonymous":false},{"type":"event","name":"ChainRemoved","inputs":[{"name":"remoteChainSelector","type":"uint64","indexed":false,"internalType":"uint64"}],"anonymous":false},{"type":"event","name":"ConfigChanged","inputs":[{"name":"config","type":"tuple","indexed":false,"internalType":"struct RateLimiter.Config","components":[{"name":"isEnabled","type":"bool","internalType":"bool"},{"name":"capacity","type":"uint128","internalType":"uint128"},{"name":"rate","type":"uint128","internalType":"uint128"}]}],"anonymous":false},{"type":"event","name":"Locked","inputs":[{"name":"sender","type":"address","indexed":true,"internalType":"address"},{"name":"amount","type":"uint256","indexed":false,"internalType":"uint256"}],"anonymous":false},{"type":"event","name":"Minted","inputs":[{"name":"sender","type":"address","indexed":true,"internalType":"address"},{"name":"recipient","type":"address","indexed":true,"internalType":"address"},{"name":"amount","type":"uint256","indexed":false,"internalType":"uint256"}],"anonymous":false},{"type":"event","name":"OwnershipTransferRequested","inputs":[{"name":"from","type":"address","indexed":true,"internalType":"address"},{"name":"to","type":"address","indexed":true,"internalType":"address"}],"anonymous":false},{"type":"event","name":"OwnershipTransferred","inputs":[{"name":"from","type":"address","indexed":true,"internalType":"address"},{"name":"to","type":"address","indexed":true,"internalType":"address"}],"anonymous":false},{"type":"event","name":"RateLimitAdminSet","inputs":[{"name":"rateLimitAdmin","type":"address","indexed":false,"internalType":"address"}],"anonymous":false},{"type":"event","name":"Released","inputs":[{"name":"sender","type":"address","indexed":true,"internalType":"address"},{"name":"recipient","type":"address","indexed":true,"internalType":"address"},{"name":"amount","type":"uint256","indexed":false,"internalType":"uint256"}],"anonymous":false},{"type":"event","name":"RemotePoolAdded","inputs":[{"name":"remoteChainSelector","type":"uint64","indexed":true,"internalType":"uint64"},{"name":"remotePoolAddress","type":"bytes","indexed":false,"internalType":"bytes"}],"anonymous":false},{"type":"event","name":"RemotePoolRemoved","inputs":[{"name":"remoteChainSelector","type":"uint64","indexed":true,"internalType":"uint64"},{"name":"remotePoolAddress","type":"bytes","indexed":false,"internalType":"bytes"}],"anonymous":false},{"type":"event","name":"RouterUpdated","inputs":[{"name":"oldRouter","type":"address","indexed":false,"internalType":"address"},{"name":"newRouter","type":"address","indexed":false,"internalType":"address"}],"anonymous":false},{"type":"event","name":"TokensConsumed","inputs":[{"name":"tokens","type":"uint256","indexed":false,"internalType":"uint256"}],"anonymous":false},{"type":"error","name":"AggregateValueMaxCapacityExceeded","inputs":[{"name":"capacity","type":"uint256","internalType":"uint256"},{"name":"requested","type":"uint256","internalType":"uint256"}]},{"type":"error","name":"AggregateValueRateLimitReached","inputs":[{"name":"minWaitInSeconds","type":"uint256","internalType":"uint256"},{"name":"available","type":"uint256","internalType":"uint256"}]},{"type":"error","name":"AllowListNotEnabled","inputs":[]},{"type":"error","name":"BucketOverfilled","inputs":[]},{"type":"error","name":"CallerIsNotARampOnRouter","inputs":[{"name":"caller","type":"address","internalType":"address"}]},{"type":"error","name":"CannotTransferToSelf","inputs":[]},{"type":"error","name":"ChainAlreadyExists","inputs":[{"name":"chainSelector","type":"uint64","internalType":"uint64"}]},{"type":"error","name":"ChainNotAllowed","inputs":[{"name":"remoteChainSelector","type":"uint64","internalType":"uint64"}]},{"type":"error","name":"CursedByRMN","inputs":[]},{"type":"error","name":"DisabledNonZeroRateLimit","inputs":[{"name":"config","type":"tuple","internalType":"struct RateLimiter.Config","components":[{"name":"isEnabled","type":"bool","internalType":"bool"},{"name":"capacity","type":"uint128","internalType":"uint128"},{"name":"rate","type":"uint128","internalType":"uint128"}]}]},{"type":"error","name":"InvalidDecimalArgs","inputs":[{"name":"expected","type":"uint8","internalType":"uint8"},{"name":"actual","type":"uint8","internalType":"uint8"}]},{"type":"error","name":"InvalidRateLimitRate","inputs":[{"name":"rateLimiterConfig","type":"tuple","internalType":"struct RateLimiter.Config","components":[{"name":"isEnabled","type":"bool","internalType":"bool"},{"name":"capacity","type":"uint128","internalType":"uint128"},{"name":"rate","type":"uint128","internalType":"uint128"}]}]},{"type":"error","name":"InvalidRemoteChainDecimals","inputs":[{"name":"sourcePoolData","type":"bytes","internalType":"bytes"}]},{"type":"error","name":"InvalidRemotePoolForChain","inputs":[{"name":"remoteChainSelector","type":"uint64","internalType":"uint64"},{"name":"remotePoolAddress","type":"bytes","internalType":"bytes"}]},{"type":"error","name":"InvalidSourcePoolAddress","inputs":[{"name":"sourcePoolAddress","type":"bytes","internalType":"bytes"}]},{"type":"error","name":"InvalidToken","inputs":[{"name":"token","type":"address","internalType":"address"}]},{"type":"error","name":"MismatchedArrayLengths","inputs":[]},{"type":"error","name":"MustBeProposedOwner","inputs":[]},{"type":"error","name":"NonExistentChain","inputs":[{"name":"remoteChainSelector","type":"uint64","internalType":"uint64"}]},{"type":"error","name":"OnlyCallableByOwner","inputs":[]},{"type":"error","name":"OverflowDetected","inputs":[{"name":"remoteDecimals","type":"uint8","internalType":"uint8"},{"name":"localDecimals","type":"uint8","internalType":"uint8"},{"name":"remoteAmount","type":"uint256","internalType":"uint256"}]},{"type":"error","name":"OwnerCannotBeZero","inputs":[]},{"type":"error","name":"PoolAlreadyAdded","inputs":[{"name":"remoteChainSelector","type":"uint64","internalType":"uint64"},{"name":"remotePoolAddress","type":"bytes","internalType":"bytes"}]},{"type":"error","name":"RateLimitMustBeDisabled","inputs":[]},{"type":"error","name":"SenderNotAllowed","inputs":[{"name":"sender","type":"address","internalType":"address"}]},{"type":"error","name":"TokenMaxCapacityExceeded","inputs":[{"name":"capacity","type":"uint256","internalType":"uint256"},{"name":"requested","type":"uint256","internalType":"uint256"},{"name":"tokenAddress","type":"address","internalType":"address"}]},{"type":"error","name":"TokenRateLimitReached","inputs":[{"name":"minWaitInSeconds","type":"uint256","internalType":"uint256"},{"name":"available","type":"uint256","internalType":"uint256"},{"name":"tokenAddress","type":"address","internalType":"address"}]},{"type":"error","name":"Unauthorized","inputs":[{"name":"caller","type":"address","internalType":"address"}]},{"type":"error","name":"ZeroAddressNotAllowed","inputs":[]}],"bytecode":{"object":"0x61010060405234801562000011575f80fd5b50604051620062bb380380620062bb833981810160405281019062000037919062000ae6565b836012848484335f8073ffffffffffffffffffffffffffffffffffffffff168273ffffffffffffffffffffffffffffffffffffffff1603620000a5576040517f9b15e16f00000000000000000000000000000000000000000000000000000000815260040160405180910390fd5b8160015f6101000a81548173ffffffffffffffffffffffffffffffffffffffff021916908373ffffffffffffffffffffffffffffffffffffffff1602179055505f73ffffffffffffffffffffffffffffffffffffffff168173ffffffffffffffffffffffffffffffffffffffff16146200012b576200012a816200040060201b60201c565b5b50505f73ffffffffffffffffffffffffffffffffffffffff168573ffffffffffffffffffffffffffffffffffffffff1614806200019357505f73ffffffffffffffffffffffffffffffffffffffff168173ffffffffffffffffffffffffffffffffffffffff16145b80620001ca57505f73ffffffffffffffffffffffffffffffffffffffff168273ffffffffffffffffffffffffffffffffffffffff16145b1562000202576040517f8579befe00000000000000000000000000000000000000000000000000000000815260040160405180910390fd5b8473ffffffffffffffffffffffffffffffffffffffff1660808173ffffffffffffffffffffffffffffffffffffffff16815250508173ffffffffffffffffffffffffffffffffffffffff1660c08173ffffffffffffffffffffffffffffffffffffffff16815250508473ffffffffffffffffffffffffffffffffffffffff1663313ce5676040518163ffffffff1660e01b8152600401602060405180830381865afa925050508015620002d557506040513d601f19601f82011682018060405250810190620002d2919062000baf565b60015b156200032c578060ff168560ff16146200032a5784816040517f655a7c0e0000000000000000000000000000000000000000000000000000000081526004016200032192919062000bf0565b60405180910390fd5b505b8360ff1660a08160ff16815250508060045f6101000a81548173ffffffffffffffffffffffffffffffffffffffff021916908373ffffffffffffffffffffffffffffffffffffffff1602179055505f835111151560e08115158152505060e05115620003f157620003f05f67ffffffffffffffff811115620003b357620003b26200095f565b5b604051908082528060200260200182016040528015620003e25781602001602082028036833780820191505090505b50846200052360201b60201c565b5b50505050505050505062000d11565b3373ffffffffffffffffffffffffffffffffffffffff168173ffffffffffffffffffffffffffffffffffffffff160362000466576040517fdad89dca00000000000000000000000000000000000000000000000000000000815260040160405180910390fd5b805f806101000a81548173ffffffffffffffffffffffffffffffffffffffff021916908373ffffffffffffffffffffffffffffffffffffffff1602179055508073ffffffffffffffffffffffffffffffffffffffff1660015f9054906101000a900473ffffffffffffffffffffffffffffffffffffffff1673ffffffffffffffffffffffffffffffffffffffff167fed8889f560326eb138920d842192f0eb3dd22b4f139c87a2c57538e05bae127860405160405180910390a350565b60e0516200055d576040517f35f4a7b300000000000000000000000000000000000000000000000000000000815260040160405180910390fd5b5f5b8251811015620005ed575f83828151811062000580576200057f62000c1b565b5b60200260200101519050620005a0816002620006bf60201b90919060201c565b15620005e0577f800671136ab6cfee9fbe5ed1fb7ca417811aca3cf864800d127b927adedf756681604051620005d7919062000c59565b60405180910390a15b508060010190506200055f565b505f5b8151811015620006ba575f82828151811062000611576200061062000c1b565b5b602002602001015190505f73ffffffffffffffffffffffffffffffffffffffff168173ffffffffffffffffffffffffffffffffffffffff1603620006565750620006ae565b6200066c816002620006f460201b90919060201c565b15620006ac577f2640d4d76caf8bf478aabfa982fa4e1c4eb71a37f93cd15e80dbc657911546d881604051620006a3919062000c59565b60405180910390a15b505b806001019050620005f0565b505050565b5f620006ec835f018373ffffffffffffffffffffffffffffffffffffffff165f1b6200072960201b60201c565b905092915050565b5f62000721835f018373ffffffffffffffffffffffffffffffffffffffff165f1b6200083560201b60201c565b905092915050565b5f80836001015f8481526020019081526020015f205490505f81146200082a575f60018262000759919062000caa565b90505f6001865f018054905062000771919062000caa565b9050808214620007de575f865f01828154811062000794576200079362000c1b565b5b905f5260205f200154905080875f018481548110620007b857620007b762000c1b565b5b905f5260205f20018190555083876001015f8381526020019081526020015f2081905550505b855f01805480620007f457620007f362000ce4565b5b600190038181905f5260205f20015f90559055856001015f8681526020019081526020015f205f9055600193505050506200082f565b5f9150505b92915050565b5f620008488383620008a660201b60201c565b6200089c57825f0182908060018154018082558091505060019003905f5260205f20015f9091909190915055825f0180549050836001015f8481526020019081526020015f208190555060019050620008a0565b5f90505b92915050565b5f80836001015f8481526020019081526020015f20541415905092915050565b5f604051905090565b5f80fd5b5f80fd5b5f73ffffffffffffffffffffffffffffffffffffffff82169050919050565b5f6200090282620008d7565b9050919050565b5f6200091582620008f6565b9050919050565b620009278162000909565b811462000932575f80fd5b50565b5f8151905062000945816200091c565b92915050565b5f80fd5b5f601f19601f8301169050919050565b7f4e487b71000000000000000000000000000000000000000000000000000000005f52604160045260245ffd5b62000997826200094f565b810181811067ffffffffffffffff82111715620009b957620009b86200095f565b5b80604052505050565b5f620009cd620008c6565b9050620009db82826200098c565b919050565b5f67ffffffffffffffff821115620009fd57620009fc6200095f565b5b602082029050602081019050919050565b5f80fd5b62000a1d81620008f6565b811462000a28575f80fd5b50565b5f8151905062000a3b8162000a12565b92915050565b5f62000a5762000a5184620009e0565b620009c2565b9050808382526020820190506020840283018581111562000a7d5762000a7c62000a0e565b5b835b8181101562000aaa578062000a95888262000a2b565b84526020840193505060208101905062000a7f565b5050509392505050565b5f82601f83011262000acb5762000aca6200094b565b5b815162000add84826020860162000a41565b91505092915050565b5f805f806080858703121562000b015762000b00620008cf565b5b5f62000b108782880162000935565b945050602085015167ffffffffffffffff81111562000b345762000b33620008d3565b5b62000b428782880162000ab4565b935050604062000b558782880162000a2b565b925050606062000b688782880162000a2b565b91505092959194509250565b5f60ff82169050919050565b62000b8b8162000b74565b811462000b96575f80fd5b50565b5f8151905062000ba98162000b80565b92915050565b5f6020828403121562000bc75762000bc6620008cf565b5b5f62000bd68482850162000b99565b91505092915050565b62000bea8162000b74565b82525050565b5f60408201905062000c055f83018562000bdf565b62000c14602083018462000bdf565b9392505050565b7f4e487b71000000000000000000000000000000000000000000000000000000005f52603260045260245ffd5b62000c5381620008f6565b82525050565b5f60208201905062000c6e5f83018462000c48565b92915050565b5f819050919050565b7f4e487b71000000000000000000000000000000000000000000000000000000005f52601160045260245ffd5b5f62000cb68262000c74565b915062000cc38362000c74565b925082820390508181111562000cde5762000cdd62000c7d565b5b92915050565b7f4e487b71000000000000000000000000000000000000000000000000000000005f52603160045260245ffd5b60805160a05160c05160e05161553062000d8b5f395f818161193d0152818161241f015261323b01525f8181611916015281816121da015261288001525f61076601525f81816106e80152818161070f015281816107d301528181610e6a01528181610f1601528181612ec8015261341301526155305ff3fe608060405234801561000f575f80fd5b50600436106101cd575f3560e01c80639a4575b911610102578063c0d78655116100a0578063dc0bd9711161006f578063dc0bd97114610551578063e0351e131461056f578063e8a1da171461058d578063f2fde38b146105a9576101cd565b8063c0d78655146104cb578063c4bffe2b146104e7578063c75eea9c14610505578063cf7401f314610535576101cd565b8063acfecf91116100dc578063acfecf9114610431578063af58d59f1461044d578063b0f479a11461047d578063b79465801461049b576101cd565b80639a4575b9146103b3578063a42a7b8b146103e3578063a7cd63b714610413576101cd565b806362ddd3c41161016f5780637d54534e116101495780637d54534e1461032d5780638926f54f146103495780638da5cb5b14610379578063962d402014610397576101cd565b806362ddd3c4146102e95780636d3d1a581461030557806379ba509714610323576101cd565b806324f65ee7116101ab57806324f65ee71461024f578063390775371461026d5780634c5ef0ed1461029d57806354c8a4f3146102cd576101cd565b806301ffc9a7146101d157806321df0da714610201578063240028e81461021f575b5f80fd5b6101eb60048036038101906101e69190613bdc565b6105c5565b6040516101f89190613c21565b60405180910390f35b6102096106e5565b6040516102169190613cb4565b60405180910390f35b61023960048036038101906102349190613d08565b61070c565b6040516102469190613c21565b60405180910390f35b610257610763565b6040516102649190613d4e565b60405180910390f35b61028760048036038101906102829190613d8a565b61078a565b6040516102949190613e03565b60405180910390f35b6102b760048036038101906102b29190613eba565b61087b565b6040516102c49190613c21565b60405180910390f35b6102e760048036038101906102e29190613f6c565b6108d6565b005b61030360048036038101906102fe9190613eba565b61096e565b005b61030d610a12565b60405161031a9190613ff9565b60405180910390f35b61032b610a3a565b005b61034760048036038101906103429190613d08565b610bbf565b005b610363600480360381019061035e9190614012565b610c41565b6040516103709190613c21565b60405180910390f35b610381610c67565b60405161038e9190613ff9565b60405180910390f35b6103b160048036038101906103ac91906140e7565b610c8f565b005b6103cd60048036038101906103c891906141b5565b610e56565b6040516103da91906142c7565b60405180910390f35b6103fd60048036038101906103f89190614012565b610ff6565b60405161040a91906143a2565b60405180910390f35b61041b61116e565b6040516104289190614479565b60405180910390f35b61044b60048036038101906104469190613eba565b61117f565b005b61046760048036038101906104629190614012565b6112b0565b6040516104749190614556565b60405180910390f35b610485611414565b6040516104929190613ff9565b60405180910390f35b6104b560048036038101906104b09190614012565b61143c565b6040516104c291906145b7565b60405180910390f35b6104e560048036038101906104e09190613d08565b6114f4565b005b6104ef611603565b6040516104fc919061468e565b60405180910390f35b61051f600480360381019061051a9190614012565b6116ce565b60405161052c9190614556565b60405180910390f35b61054f600480360381019061054a91906147e3565b611831565b005b610559611913565b6040516105669190613ff9565b60405180910390f35b61057761193a565b6040516105849190613c21565b60405180910390f35b6105a760048036038101906105a29190614888565b611961565b005b6105c360048036038101906105be9190613d08565b612156565b005b5f63aff2afbf60e01b7bffffffffffffffffffffffffffffffffffffffffffffffffffffffff1916827bffffffffffffffffffffffffffffffffffffffffffffffffffffffff1916148061067657507f0e64dd29000000000000000000000000000000000000000000000000000000007bffffffffffffffffffffffffffffffffffffffffffffffffffffffff1916827bffffffffffffffffffffffffffffffffffffffffffffffffffffffff1916145b806106de57507f01ffc9a7000000000000000000000000000000000000000000000000000000007bffffffffffffffffffffffffffffffffffffffffffffffffffffffff1916827bffffffffffffffffffffffffffffffffffffffffffffffffffffffff1916145b9050919050565b5f7f0000000000000000000000000000000000000000000000000000000000000000905090565b5f7f000000000000000000000000000000000000000000000000000000000000000073ffffffffffffffffffffffffffffffffffffffff168273ffffffffffffffffffffffffffffffffffffffff16149050919050565b5f7f0000000000000000000000000000000000000000000000000000000000000000905090565b610792613a51565b61079b8261216a565b5f8260400160208101906107af9190613d08565b90505f838060c001906107c29190614912565b8101906107cf919061499e565b90507f000000000000000000000000000000000000000000000000000000000000000073ffffffffffffffffffffffffffffffffffffffff1663156e29f6838660600135846040518463ffffffff1660e01b8152600401610832939291906149d8565b5f604051808303815f87803b158015610849575f80fd5b505af115801561085b573d5f803e3d5ffd5b505050506040518060200160405280856060013581525092505050919050565b5f6108cd838360405161088f929190614a49565b604051809103902060075f8767ffffffffffffffff1667ffffffffffffffff1681526020019081526020015f2060050161238090919063ffffffff16565b90509392505050565b6108de612395565b6109688484808060200260200160405190810160405280939291908181526020018383602002808284375f81840152601f19601f820116905080830192505050505050508383808060200260200160405190810160405280939291908181526020018383602002808284375f81840152601f19601f8201169050808301925050505050505061241d565b50505050565b610976612395565b61097f83610c41565b6109c057826040517f1e670e4b0000000000000000000000000000000000000000000000000000000081526004016109b79190614a70565b60405180910390fd5b610a0d8383838080601f0160208091040260200160405190810160405280939291908181526020018383808284375f81840152601f19601f820116905080830192505050505050506125c0565b505050565b5f60095f9054906101000a900473ffffffffffffffffffffffffffffffffffffffff16905090565b5f8054906101000a900473ffffffffffffffffffffffffffffffffffffffff1673ffffffffffffffffffffffffffffffffffffffff163373ffffffffffffffffffffffffffffffffffffffff1614610abe576040517f02b543c600000000000000000000000000000000000000000000000000000000815260040160405180910390fd5b5f60015f9054906101000a900473ffffffffffffffffffffffffffffffffffffffff1690503360015f6101000a81548173ffffffffffffffffffffffffffffffffffffffff021916908373ffffffffffffffffffffffffffffffffffffffff1602179055505f805f6101000a81548173ffffffffffffffffffffffffffffffffffffffff021916908373ffffffffffffffffffffffffffffffffffffffff1602179055503373ffffffffffffffffffffffffffffffffffffffff168173ffffffffffffffffffffffffffffffffffffffff167f8be0079c531659141344cd1fd0a4f28419497f9722a3daafe3b4186f6b6457e060405160405180910390a350565b610bc7612395565b8060095f6101000a81548173ffffffffffffffffffffffffffffffffffffffff021916908373ffffffffffffffffffffffffffffffffffffffff1602179055507f44676b5284b809a22248eba0da87391d79098be38bb03154be88a58bf4d0917481604051610c369190613ff9565b60405180910390a150565b5f610c608267ffffffffffffffff1660056126e890919063ffffffff16565b9050919050565b5f60015f9054906101000a900473ffffffffffffffffffffffffffffffffffffffff16905090565b60095f9054906101000a900473ffffffffffffffffffffffffffffffffffffffff1673ffffffffffffffffffffffffffffffffffffffff163373ffffffffffffffffffffffffffffffffffffffff1614158015610d1f5750610cef610c67565b73ffffffffffffffffffffffffffffffffffffffff163373ffffffffffffffffffffffffffffffffffffffff1614155b15610d6157336040517f8e4a23d6000000000000000000000000000000000000000000000000000000008152600401610d589190613ff9565b60405180910390fd5b8383905086869050141580610d7c5750818190508686905014155b15610db3576040517f568efce200000000000000000000000000000000000000000000000000000000815260040160405180910390fd5b5f5b86869050811015610e4d57610e42878783818110610dd657610dd5614a89565b5b9050602002016020810190610deb9190614012565b868684818110610dfe57610dfd614a89565b5b905060600201803603810190610e149190614ab6565b858585818110610e2757610e26614a89565b5b905060600201803603810190610e3d9190614ab6565b6126ff565b806001019050610db5565b50505050505050565b610e5e613a63565b610e6782612810565b5f7f000000000000000000000000000000000000000000000000000000000000000073ffffffffffffffffffffffffffffffffffffffff166357b5e09a846040016020810190610eb79190613d08565b6040518263ffffffff1660e01b8152600401610ed39190613ff9565b602060405180830381865afa158015610eee573d5f803e3d5ffd5b505050506040513d601f19601f82011682018060405250810190610f129190614af5565b90507f000000000000000000000000000000000000000000000000000000000000000073ffffffffffffffffffffffffffffffffffffffff16639dc29fac3085606001356040518363ffffffff1660e01b8152600401610f73929190614b20565b5f604051808303815f87803b158015610f8a575f80fd5b505af1158015610f9c573d5f803e3d5ffd5b505050506040518060400160405280610fc6856020016020810190610fc19190614012565b61143c565b815260200182604051602001610fdc9190614b47565b604051602081830303815290604052815250915050919050565b60605f61102960075f8567ffffffffffffffff1667ffffffffffffffff1681526020019081526020015f206005016129c5565b90505f815167ffffffffffffffff811115611047576110466146b2565b5b60405190808252806020026020018201604052801561107a57816020015b60608152602001906001900390816110655790505b5090505f5b82518110156111635760085f84838151811061109e5761109d614a89565b5b602002602001015181526020019081526020015f2080546110be90614b8d565b80601f01602080910402602001604051908101604052809291908181526020018280546110ea90614b8d565b80156111355780601f1061110c57610100808354040283529160200191611135565b820191905f5260205f20905b81548152906001019060200180831161111857829003601f168201915b505050505082828151811061114d5761114c614a89565b5b602002602001018190525080600101905061107f565b508092505050919050565b606061117a60026129e4565b905090565b611187612395565b61119083610c41565b6111d157826040517f1e670e4b0000000000000000000000000000000000000000000000000000000081526004016111c89190614a70565b60405180910390fd5b61122282826040516111e4929190614a49565b604051809103902060075f8667ffffffffffffffff1667ffffffffffffffff1681526020019081526020015f20600501612a0390919063ffffffff16565b611267578282826040517f74f23c7c00000000000000000000000000000000000000000000000000000000815260040161125e93929190614be9565b60405180910390fd5b8267ffffffffffffffff167f52d00ee4d9bd51b40168f2afc5848837288ce258784ad914278791464b3f4d7683836040516112a3929190614c19565b60405180910390a2505050565b6112b8613a7d565b61140d60075f8467ffffffffffffffff1667ffffffffffffffff1681526020019081526020015f206002016040518060a00160405290815f82015f9054906101000a90046fffffffffffffffffffffffffffffffff166fffffffffffffffffffffffffffffffff166fffffffffffffffffffffffffffffffff1681526020015f820160109054906101000a900463ffffffff1663ffffffff1663ffffffff1681526020015f820160149054906101000a900460ff16151515158152602001600182015f9054906101000a90046fffffffffffffffffffffffffffffffff166fffffffffffffffffffffffffffffffff166fffffffffffffffffffffffffffffffff1681526020016001820160109054906101000a90046fffffffffffffffffffffffffffffffff166fffffffffffffffffffffffffffffffff166fffffffffffffffffffffffffffffffff1681525050612a18565b9050919050565b5f60045f9054906101000a900473ffffffffffffffffffffffffffffffffffffffff16905090565b606060075f8367ffffffffffffffff1667ffffffffffffffff1681526020019081526020015f20600401805461147190614b8d565b80601f016020809104026020016040519081016040528092919081815260200182805461149d90614b8d565b80156114e85780601f106114bf576101008083540402835291602001916114e8565b820191905f5260205f20905b8154815290600101906020018083116114cb57829003601f168201915b50505050509050919050565b6114fc612395565b5f73ffffffffffffffffffffffffffffffffffffffff168173ffffffffffffffffffffffffffffffffffffffff1603611561576040517f8579befe00000000000000000000000000000000000000000000000000000000815260040160405180910390fd5b5f60045f9054906101000a900473ffffffffffffffffffffffffffffffffffffffff1690508160045f6101000a81548173ffffffffffffffffffffffffffffffffffffffff021916908373ffffffffffffffffffffffffffffffffffffffff1602179055507f02dc5c233404867c793b749c6d644beb2277536d18a7e7974d3f238e4c6f168481836040516115f7929190614c3b565b60405180910390a15050565b60605f6116106005612ad0565b90505f815167ffffffffffffffff81111561162e5761162d6146b2565b5b60405190808252806020026020018201604052801561165c5781602001602082028036833780820191505090505b5090505f5b82518110156116c55782818151811061167d5761167c614a89565b5b602002602001015182828151811061169857611697614a89565b5b602002602001019067ffffffffffffffff16908167ffffffffffffffff1681525050806001019050611661565b50809250505090565b6116d6613a7d565b61182a60075f8467ffffffffffffffff1667ffffffffffffffff1681526020019081526020015f205f016040518060a00160405290815f82015f9054906101000a90046fffffffffffffffffffffffffffffffff166fffffffffffffffffffffffffffffffff166fffffffffffffffffffffffffffffffff1681526020015f820160109054906101000a900463ffffffff1663ffffffff1663ffffffff1681526020015f820160149054906101000a900460ff16151515158152602001600182015f9054906101000a90046fffffffffffffffffffffffffffffffff166fffffffffffffffffffffffffffffffff166fffffffffffffffffffffffffffffffff1681526020016001820160109054906101000a90046fffffffffffffffffffffffffffffffff166fffffffffffffffffffffffffffffffff166fffffffffffffffffffffffffffffffff1681525050612a18565b9050919050565b60095f9054906101000a900473ffffffffffffffffffffffffffffffffffffffff1673ffffffffffffffffffffffffffffffffffffffff163373ffffffffffffffffffffffffffffffffffffffff16141580156118c15750611891610c67565b73ffffffffffffffffffffffffffffffffffffffff163373ffffffffffffffffffffffffffffffffffffffff1614155b1561190357336040517f8e4a23d60000000000000000000000000000000000000000000000000000000081526004016118fa9190613ff9565b60405180910390fd5b61190e8383836126ff565b505050565b5f7f0000000000000000000000000000000000000000000000000000000000000000905090565b5f7f0000000000000000000000000000000000000000000000000000000000000000905090565b611969612395565b5f5b84849050811015611c60575f85858381811061198a57611989614a89565b5b905060200201602081019061199f9190614012565b90506119bf8167ffffffffffffffff166005612aef90919063ffffffff16565b611a0057806040517f1e670e4b0000000000000000000000000000000000000000000000000000000081526004016119f79190614a70565b60405180910390fd5b5f611a3160075f8467ffffffffffffffff1667ffffffffffffffff1681526020019081526020015f206005016129c5565b90505f5b8151811015611a9e57611a92828281518110611a5457611a53614a89565b5b602002602001015160075f8667ffffffffffffffff1667ffffffffffffffff1681526020019081526020015f20600501612a0390919063ffffffff16565b50806001019050611a35565b5060075f8367ffffffffffffffff1667ffffffffffffffff1681526020019081526020015f205f8082015f8082015f6101000a8154906fffffffffffffffffffffffffffffffff02191690555f820160106101000a81549063ffffffff02191690555f820160146101000a81549060ff0219169055600182015f6101000a8154906fffffffffffffffffffffffffffffffff02191690556001820160106101000a8154906fffffffffffffffffffffffffffffffff02191690555050600282015f8082015f6101000a8154906fffffffffffffffffffffffffffffffff02191690555f820160106101000a81549063ffffffff02191690555f820160146101000a81549060ff0219169055600182015f6101000a8154906fffffffffffffffffffffffffffffffff02191690556001820160106101000a8154906fffffffffffffffffffffffffffffffff02191690555050600482015f611bff9190613ae5565b600582015f8082015f8082015f611c169190613b22565b5050505050507f5204aec90a3c794d8e90fded8b46ae9c7c552803e7e832e0c1d358396d85991682604051611c4b9190614a70565b60405180910390a1505080600101905061196b565b505f5b8282905081101561214f575f838383818110611c8257611c81614a89565b5b9050602002810190611c949190614c62565b611c9d90614ecc565b9050611cad81606001515f612b06565b611cbb81608001515f612b06565b5f81604001515103611cf9576040517f8579befe00000000000000000000000000000000000000000000000000000000815260040160405180910390fd5b611d1a815f015167ffffffffffffffff166005612c6090919063ffffffff16565b611d5e57805f01516040517f1d5ad3c5000000000000000000000000000000000000000000000000000000008152600401611d559190614a70565b60405180910390fd5b5f60075f835f015167ffffffffffffffff1667ffffffffffffffff1681526020019081526020015f2090506040518060a001604052808360600151602001516fffffffffffffffffffffffffffffffff1681526020014263ffffffff16815260200183606001515f0151151581526020018360600151602001516fffffffffffffffffffffffffffffffff1681526020018360600151604001516fffffffffffffffffffffffffffffffff16815250815f015f820151815f015f6101000a8154816fffffffffffffffffffffffffffffffff02191690836fffffffffffffffffffffffffffffffff1602179055506020820151815f0160106101000a81548163ffffffff021916908363ffffffff1602179055506040820151815f0160146101000a81548160ff0219169083151502179055506060820151816001015f6101000a8154816fffffffffffffffffffffffffffffffff02191690836fffffffffffffffffffffffffffffffff16021790555060808201518160010160106101000a8154816fffffffffffffffffffffffffffffffff02191690836fffffffffffffffffffffffffffffffff1602179055509050506040518060a001604052808360800151602001516fffffffffffffffffffffffffffffffff1681526020014263ffffffff16815260200183608001515f0151151581526020018360800151602001516fffffffffffffffffffffffffffffffff1681526020018360800151604001516fffffffffffffffffffffffffffffffff16815250816002015f820151815f015f6101000a8154816fffffffffffffffffffffffffffffffff02191690836fffffffffffffffffffffffffffffffff1602179055506020820151815f0160106101000a81548163ffffffff021916908363ffffffff1602179055506040820151815f0160146101000a81548160ff0219169083151502179055506060820151816001015f6101000a8154816fffffffffffffffffffffffffffffffff02191690836fffffffffffffffffffffffffffffffff16021790555060808201518160010160106101000a8154816fffffffffffffffffffffffffffffffff02191690836fffffffffffffffffffffffffffffffff16021790555090505081604001518160040190816120af9190615072565b505f5b8260200151518110156120f5576120ea835f0151846020015183815181106120dd576120dc614a89565b5b60200260200101516125c0565b8060010190506120b2565b507f8d340f17e19058004c20453540862a9c62778504476f6756755cb33bcd6c38c2825f015183604001518460600151856080015160405161213a9493929190615181565b60405180910390a15050806001019050611c63565b5050505050565b61215e612395565b61216781612c77565b50565b6121858160800160208101906121809190613d08565b61070c565b6121d85780608001602081019061219c9190613d08565b6040517f961c9a4f0000000000000000000000000000000000000000000000000000000081526004016121cf9190613ff9565b60405180910390fd5b7f000000000000000000000000000000000000000000000000000000000000000073ffffffffffffffffffffffffffffffffffffffff16632cbc26bb8260200160208101906122279190614012565b67ffffffffffffffff1660801b6040518263ffffffff1660e01b81526004016122509190615206565b602060405180830381865afa15801561226b573d5f803e3d5ffd5b505050506040513d601f19601f8201168201806040525081019061228f9190615233565b156122c6576040517f53ad11d800000000000000000000000000000000000000000000000000000000815260040160405180910390fd5b6122e18160200160208101906122dc9190614012565b612d99565b61230c8160200160208101906122f79190614012565b828060a001906123079190614912565b61087b565b61235d57808060a001906123209190614912565b6040517f24eb47e5000000000000000000000000000000000000000000000000000000008152600401612354929190614c19565b60405180910390fd5b61237d8160200160208101906123739190614012565b8260600135612ec2565b50565b5f61238d835f0183612f22565b905092915050565b60015f9054906101000a900473ffffffffffffffffffffffffffffffffffffffff1673ffffffffffffffffffffffffffffffffffffffff163373ffffffffffffffffffffffffffffffffffffffff161461241b576040517f2b5c74de00000000000000000000000000000000000000000000000000000000815260040160405180910390fd5b565b7f0000000000000000000000000000000000000000000000000000000000000000612474576040517f35f4a7b300000000000000000000000000000000000000000000000000000000815260040160405180910390fd5b5f5b82518110156124fa575f83828151811061249357612492614a89565b5b602002602001015190506124b1816002612f4290919063ffffffff16565b156124ee577f800671136ab6cfee9fbe5ed1fb7ca417811aca3cf864800d127b927adedf7566816040516124e59190613ff9565b60405180910390a15b50806001019050612476565b505f5b81518110156125bb575f82828151811061251a57612519614a89565b5b602002602001015190505f73ffffffffffffffffffffffffffffffffffffffff168173ffffffffffffffffffffffffffffffffffffffff160361255d57506125b0565b612571816002612f6f90919063ffffffff16565b156125ae577f2640d4d76caf8bf478aabfa982fa4e1c4eb71a37f93cd15e80dbc657911546d8816040516125a59190613ff9565b60405180910390a15b505b8060010190506124fd565b505050565b5f8151036125fa576040517f8579befe00000000000000000000000000000000000000000000000000000000815260040160405180910390fd5b5f8180519060200120905061263f8160075f8667ffffffffffffffff1667ffffffffffffffff1681526020019081526020015f20600501612f9c90919063ffffffff16565b6126825782826040517f393b8ad200000000000000000000000000000000000000000000000000000000815260040161267992919061525e565b60405180910390fd5b8160085f8381526020019081526020015f2090816126a09190615072565b508267ffffffffffffffff167f7d628c9a1796743d365ab521a8b2a4686e419b3269919dc9145ea2ce853b54ea836040516126db91906145b7565b60405180910390a2505050565b5f6126f7835f01835f1b612f22565b905092915050565b61270883610c41565b61274957826040517f1e670e4b0000000000000000000000000000000000000000000000000000000081526004016127409190614a70565b60405180910390fd5b612753825f612b06565b61278c8260075f8667ffffffffffffffff1667ffffffffffffffff1681526020019081526020015f205f01612fb190919063ffffffff16565b612796815f612b06565b6127d08160075f8667ffffffffffffffff1667ffffffffffffffff1681526020019081526020015f20600201612fb190919063ffffffff16565b7f0350d63aa5f270e01729d00d627eeb8f3429772b1818c016c66a588a864f912b8383836040516128039392919061528c565b60405180910390a1505050565b61282b8160800160208101906128269190613d08565b61070c565b61287e578060800160208101906128429190613d08565b6040517f961c9a4f0000000000000000000000000000000000000000000000000000000081526004016128759190613ff9565b60405180910390fd5b7f000000000000000000000000000000000000000000000000000000000000000073ffffffffffffffffffffffffffffffffffffffff16632cbc26bb8260200160208101906128cd9190614012565b67ffffffffffffffff1660801b6040518263ffffffff1660e01b81526004016128f69190615206565b602060405180830381865afa158015612911573d5f803e3d5ffd5b505050506040513d601f19601f820116820180604052508101906129359190615233565b1561296c576040517f53ad11d800000000000000000000000000000000000000000000000000000000815260040160405180910390fd5b6129878160400160208101906129829190613d08565b613239565b6129a281602001602081019061299d9190614012565b6132b8565b6129c28160200160208101906129b89190614012565b826060013561340d565b50565b60605f6129d3835f0161346c565b905060608190508092505050919050565b60605f6129f2835f0161346c565b905060608190508092505050919050565b5f612a10835f01836134c5565b905092915050565b612a20613a7d565b612a8282606001516fffffffffffffffffffffffffffffffff16835f01516fffffffffffffffffffffffffffffffff16846020015163ffffffff1642612a6691906152ee565b85608001516fffffffffffffffffffffffffffffffff166135c1565b825f01906fffffffffffffffffffffffffffffffff1690816fffffffffffffffffffffffffffffffff168152505042826020019063ffffffff16908163ffffffff1681525050819050919050565b60605f612ade835f0161346c565b905060608190508092505050919050565b5f612afe835f01835f1b6134c5565b905092915050565b815f015115612bde5781602001516fffffffffffffffffffffffffffffffff1682604001516fffffffffffffffffffffffffffffffff16101580612b5f57505f82604001516fffffffffffffffffffffffffffffffff16145b15612ba157816040517f8020d124000000000000000000000000000000000000000000000000000000008152600401612b989190615321565b60405180910390fd5b8015612bd9576040517f433fc33d00000000000000000000000000000000000000000000000000000000815260040160405180910390fd5b612c5c565b5f82604001516fffffffffffffffffffffffffffffffff16141580612c1957505f82602001516fffffffffffffffffffffffffffffffff1614155b15612c5b57816040517fd68af9cc000000000000000000000000000000000000000000000000000000008152600401612c529190615321565b60405180910390fd5b5b5050565b5f612c6f835f01835f1b6135ec565b905092915050565b3373ffffffffffffffffffffffffffffffffffffffff168173ffffffffffffffffffffffffffffffffffffffff1603612cdc576040517fdad89dca00000000000000000000000000000000000000000000000000000000815260040160405180910390fd5b805f806101000a81548173ffffffffffffffffffffffffffffffffffffffff021916908373ffffffffffffffffffffffffffffffffffffffff1602179055508073ffffffffffffffffffffffffffffffffffffffff1660015f9054906101000a900473ffffffffffffffffffffffffffffffffffffffff1673ffffffffffffffffffffffffffffffffffffffff167fed8889f560326eb138920d842192f0eb3dd22b4f139c87a2c57538e05bae127860405160405180910390a350565b612da281610c41565b612de357806040517fa9902c7e000000000000000000000000000000000000000000000000000000008152600401612dda9190614a70565b60405180910390fd5b60045f9054906101000a900473ffffffffffffffffffffffffffffffffffffffff1673ffffffffffffffffffffffffffffffffffffffff166383826b2b82336040518363ffffffff1660e01b8152600401612e3f92919061533a565b602060405180830381865afa158015612e5a573d5f803e3d5ffd5b505050506040513d601f19601f82011682018060405250810190612e7e9190615233565b612ebf57336040517f728fe07b000000000000000000000000000000000000000000000000000000008152600401612eb69190613ff9565b60405180910390fd5b50565b612f1e817f000000000000000000000000000000000000000000000000000000000000000060075f8667ffffffffffffffff1667ffffffffffffffff1681526020019081526020015f206002016136539092919063ffffffff16565b5050565b5f80836001015f8481526020019081526020015f20541415905092915050565b5f612f67835f018373ffffffffffffffffffffffffffffffffffffffff165f1b6134c5565b905092915050565b5f612f94835f018373ffffffffffffffffffffffffffffffffffffffff165f1b6135ec565b905092915050565b5f612fa9835f01836135ec565b905092915050565b5f825f0160109054906101000a900463ffffffff1663ffffffff1642612fd791906152ee565b90505f81146130da5761307f836001015f9054906101000a90046fffffffffffffffffffffffffffffffff166fffffffffffffffffffffffffffffffff16845f015f9054906101000a90046fffffffffffffffffffffffffffffffff166fffffffffffffffffffffffffffffffff16838660010160109054906101000a90046fffffffffffffffffffffffffffffffff166fffffffffffffffffffffffffffffffff166135c1565b835f015f6101000a8154816fffffffffffffffffffffffffffffffff02191690836fffffffffffffffffffffffffffffffff16021790555042835f0160106101000a81548163ffffffff021916908363ffffffff1602179055505b61312a82602001516fffffffffffffffffffffffffffffffff16845f015f9054906101000a90046fffffffffffffffffffffffffffffffff166fffffffffffffffffffffffffffffffff16613a0c565b835f015f6101000a8154816fffffffffffffffffffffffffffffffff02191690836fffffffffffffffffffffffffffffffff160217905550815f0151835f0160146101000a81548160ff0219169083151502179055508160200151836001015f6101000a8154816fffffffffffffffffffffffffffffffff02191690836fffffffffffffffffffffffffffffffff16021790555081604001518360010160106101000a8154816fffffffffffffffffffffffffffffffff02191690836fffffffffffffffffffffffffffffffff1602179055507f9ea3374b67bf275e6bb9c8ae68f9cae023e1c528b4b27e092f0bb209d3531c198260405161322c9190615321565b60405180910390a1505050565b7f0000000000000000000000000000000000000000000000000000000000000000156132b557613273816002613a2490919063ffffffff16565b6132b457806040517fd0d259760000000000000000000000000000000000000000000000000000000081526004016132ab9190613ff9565b60405180910390fd5b5b50565b6132c181610c41565b61330257806040517fa9902c7e0000000000000000000000000000000000000000000000000000000081526004016132f99190614a70565b60405180910390fd5b60045f9054906101000a900473ffffffffffffffffffffffffffffffffffffffff1673ffffffffffffffffffffffffffffffffffffffff1663a8d87a3b826040518263ffffffff1660e01b815260040161335c9190614a70565b602060405180830381865afa158015613377573d5f803e3d5ffd5b505050506040513d601f19601f8201168201806040525081019061339b9190615375565b73ffffffffffffffffffffffffffffffffffffffff163373ffffffffffffffffffffffffffffffffffffffff161461340a57336040517f728fe07b0000000000000000000000000000000000000000000000000000000081526004016134019190613ff9565b60405180910390fd5b50565b613468817f000000000000000000000000000000000000000000000000000000000000000060075f8667ffffffffffffffff1667ffffffffffffffff1681526020019081526020015f205f016136539092919063ffffffff16565b5050565b6060815f018054806020026020016040519081016040528092919081815260200182805480156134b957602002820191905f5260205f20905b8154815260200190600101908083116134a5575b50505050509050919050565b5f80836001015f8481526020019081526020015f205490505f81146135b6575f6001826134f291906152ee565b90505f6001865f018054905061350891906152ee565b905080821461356e575f865f01828154811061352757613526614a89565b5b905f5260205f200154905080875f01848154811061354857613547614a89565b5b905f5260205f20018190555083876001015f8381526020019081526020015f2081905550505b855f01805480613581576135806153a0565b5b600190038181905f5260205f20015f90559055856001015f8681526020019081526020015f205f9055600193505050506135bb565b5f9150505b92915050565b5f6135e28583856135d291906153cd565b866135dd919061540e565b613a0c565b9050949350505050565b5f6135f78383612f22565b61364957825f0182908060018154018082558091505060019003905f5260205f20015f9091909190915055825f0180549050836001015f8481526020019081526020015f20819055506001905061364d565b5f90505b92915050565b825f0160149054906101000a900460ff16158061366f57505f82145b613a07575f835f015f9054906101000a90046fffffffffffffffffffffffffffffffff166fffffffffffffffffffffffffffffffff1690505f846001015f9054906101000a90046fffffffffffffffffffffffffffffffff166fffffffffffffffffffffffffffffffff1690505f855f0160109054906101000a900463ffffffff1663ffffffff164261370291906152ee565b90505f81146137a85781831115613745576040517f9725942a00000000000000000000000000000000000000000000000000000000815260040160405180910390fd5b6137838284838960010160109054906101000a90046fffffffffffffffffffffffffffffffff166fffffffffffffffffffffffffffffffff166135c1565b925042865f0160106101000a81548163ffffffff021916908363ffffffff1602179055505b84821015613863575f73ffffffffffffffffffffffffffffffffffffffff168473ffffffffffffffffffffffffffffffffffffffff16036138225781856040517ff94ebcd1000000000000000000000000000000000000000000000000000000008152600401613819929190615441565b60405180910390fd5b8185856040517f1a76572a00000000000000000000000000000000000000000000000000000000815260040161385a93929190615468565b60405180910390fd5b84831015613985575f8660010160109054906101000a90046fffffffffffffffffffffffffffffffff166fffffffffffffffffffffffffffffffff1690505f816001836138b091906152ee565b86896138bc91906152ee565b6138c6919061540e565b6138d091906154ca565b90505f73ffffffffffffffffffffffffffffffffffffffff168673ffffffffffffffffffffffffffffffffffffffff16036139445780856040517f15279c0800000000000000000000000000000000000000000000000000000000815260040161393b929190615441565b60405180910390fd5b8085876040517fd0c8d23a00000000000000000000000000000000000000000000000000000000815260040161397c93929190615468565b60405180910390fd5b848361399191906152ee565b925082865f015f6101000a8154816fffffffffffffffffffffffffffffffff02191690836fffffffffffffffffffffffffffffffff1602179055507f1871cdf8010e63f2eb8384381a68dfa7416dc571a5517e66e88b2d2d0c0a690a856040516139fb9190614b47565b60405180910390a15050505b505050565b5f818310613a1a5781613a1c565b825b905092915050565b5f613a49835f018373ffffffffffffffffffffffffffffffffffffffff165f1b612f22565b905092915050565b60405180602001604052805f81525090565b604051806040016040528060608152602001606081525090565b6040518060a001604052805f6fffffffffffffffffffffffffffffffff1681526020015f63ffffffff1681526020015f151581526020015f6fffffffffffffffffffffffffffffffff1681526020015f6fffffffffffffffffffffffffffffffff1681525090565b508054613af190614b8d565b5f825580601f10613b025750613b1f565b601f0160209004905f5260205f2090810190613b1e9190613b40565b5b50565b5080545f8255905f5260205f2090810190613b3d9190613b5b565b50565b5b80821115613b57575f815f905550600101613b41565b5090565b5b80821115613b72575f815f905550600101613b5c565b5090565b5f604051905090565b5f80fd5b5f80fd5b5f7fffffffff0000000000000000000000000000000000000000000000000000000082169050919050565b613bbb81613b87565b8114613bc5575f80fd5b50565b5f81359050613bd681613bb2565b92915050565b5f60208284031215613bf157613bf0613b7f565b5b5f613bfe84828501613bc8565b91505092915050565b5f8115159050919050565b613c1b81613c07565b82525050565b5f602082019050613c345f830184613c12565b92915050565b5f73ffffffffffffffffffffffffffffffffffffffff82169050919050565b5f819050919050565b5f613c7c613c77613c7284613c3a565b613c59565b613c3a565b9050919050565b5f613c8d82613c62565b9050919050565b5f613c9e82613c83565b9050919050565b613cae81613c94565b82525050565b5f602082019050613cc75f830184613ca5565b92915050565b5f613cd782613c3a565b9050919050565b613ce781613ccd565b8114613cf1575f80fd5b50565b5f81359050613d0281613cde565b92915050565b5f60208284031215613d1d57613d1c613b7f565b5b5f613d2a84828501613cf4565b91505092915050565b5f60ff82169050919050565b613d4881613d33565b82525050565b5f602082019050613d615f830184613d3f565b92915050565b5f80fd5b5f6101008284031215613d8157613d80613d67565b5b81905092915050565b5f60208284031215613d9f57613d9e613b7f565b5b5f82013567ffffffffffffffff811115613dbc57613dbb613b83565b5b613dc884828501613d6b565b91505092915050565b5f819050919050565b613de381613dd1565b82525050565b602082015f820151613dfd5f850182613dda565b50505050565b5f602082019050613e165f830184613de9565b92915050565b5f67ffffffffffffffff82169050919050565b613e3881613e1c565b8114613e42575f80fd5b50565b5f81359050613e5381613e2f565b92915050565b5f80fd5b5f80fd5b5f80fd5b5f8083601f840112613e7a57613e79613e59565b5b8235905067ffffffffffffffff811115613e9757613e96613e5d565b5b602083019150836001820283011115613eb357613eb2613e61565b5b9250929050565b5f805f60408486031215613ed157613ed0613b7f565b5b5f613ede86828701613e45565b935050602084013567ffffffffffffffff811115613eff57613efe613b83565b5b613f0b86828701613e65565b92509250509250925092565b5f8083601f840112613f2c57613f2b613e59565b5b8235905067ffffffffffffffff811115613f4957613f48613e5d565b5b602083019150836020820283011115613f6557613f64613e61565b5b9250929050565b5f805f8060408587031215613f8457613f83613b7f565b5b5f85013567ffffffffffffffff811115613fa157613fa0613b83565b5b613fad87828801613f17565b9450945050602085013567ffffffffffffffff811115613fd057613fcf613b83565b5b613fdc87828801613f17565b925092505092959194509250565b613ff381613ccd565b82525050565b5f60208201905061400c5f830184613fea565b92915050565b5f6020828403121561402757614026613b7f565b5b5f61403484828501613e45565b91505092915050565b5f8083601f84011261405257614051613e59565b5b8235905067ffffffffffffffff81111561406f5761406e613e5d565b5b60208301915083602082028301111561408b5761408a613e61565b5b9250929050565b5f8083601f8401126140a7576140a6613e59565b5b8235905067ffffffffffffffff8111156140c4576140c3613e5d565b5b6020830191508360608202830111156140e0576140df613e61565b5b9250929050565b5f805f805f806060878903121561410157614100613b7f565b5b5f87013567ffffffffffffffff81111561411e5761411d613b83565b5b61412a89828a0161403d565b9650965050602087013567ffffffffffffffff81111561414d5761414c613b83565b5b61415989828a01614092565b9450945050604087013567ffffffffffffffff81111561417c5761417b613b83565b5b61418889828a01614092565b92509250509295509295509295565b5f60a082840312156141ac576141ab613d67565b5b81905092915050565b5f602082840312156141ca576141c9613b7f565b5b5f82013567ffffffffffffffff8111156141e7576141e6613b83565b5b6141f384828501614197565b91505092915050565b5f81519050919050565b5f82825260208201905092915050565b5f5b83811015614233578082015181840152602081019050614218565b5f8484015250505050565b5f601f19601f8301169050919050565b5f614258826141fc565b6142628185614206565b9350614272818560208601614216565b61427b8161423e565b840191505092915050565b5f604083015f8301518482035f8601526142a0828261424e565b915050602083015184820360208601526142ba828261424e565b9150508091505092915050565b5f6020820190508181035f8301526142df8184614286565b905092915050565b5f81519050919050565b5f82825260208201905092915050565b5f819050602082019050919050565b5f61431b838361424e565b905092915050565b5f602082019050919050565b5f614339826142e7565b61434381856142f1565b93508360208202850161435585614301565b805f5b8581101561439057848403895281516143718582614310565b945061437c83614323565b925060208a01995050600181019050614358565b50829750879550505050505092915050565b5f6020820190508181035f8301526143ba818461432f565b905092915050565b5f81519050919050565b5f82825260208201905092915050565b5f819050602082019050919050565b6143f481613ccd565b82525050565b5f61440583836143eb565b60208301905092915050565b5f602082019050919050565b5f614427826143c2565b61443181856143cc565b935061443c836143dc565b805f5b8381101561446c57815161445388826143fa565b975061445e83614411565b92505060018101905061443f565b5085935050505092915050565b5f6020820190508181035f830152614491818461441d565b905092915050565b5f6fffffffffffffffffffffffffffffffff82169050919050565b6144bd81614499565b82525050565b5f63ffffffff82169050919050565b6144db816144c3565b82525050565b6144ea81613c07565b82525050565b60a082015f8201516145045f8501826144b4565b50602082015161451760208501826144d2565b50604082015161452a60408501826144e1565b50606082015161453d60608501826144b4565b50608082015161455060808501826144b4565b50505050565b5f60a0820190506145695f8301846144f0565b92915050565b5f82825260208201905092915050565b5f614589826141fc565b614593818561456f565b93506145a3818560208601614216565b6145ac8161423e565b840191505092915050565b5f6020820190508181035f8301526145cf818461457f565b905092915050565b5f81519050919050565b5f82825260208201905092915050565b5f819050602082019050919050565b61460981613e1c565b82525050565b5f61461a8383614600565b60208301905092915050565b5f602082019050919050565b5f61463c826145d7565b61464681856145e1565b9350614651836145f1565b805f5b83811015614681578151614668888261460f565b975061467383614626565b925050600181019050614654565b5085935050505092915050565b5f6020820190508181035f8301526146a68184614632565b905092915050565b5f80fd5b7f4e487b71000000000000000000000000000000000000000000000000000000005f52604160045260245ffd5b6146e88261423e565b810181811067ffffffffffffffff82111715614707576147066146b2565b5b80604052505050565b5f614719613b76565b905061472582826146df565b919050565b5f80fd5b61473781613c07565b8114614741575f80fd5b50565b5f813590506147528161472e565b92915050565b61476181614499565b811461476b575f80fd5b50565b5f8135905061477c81614758565b92915050565b5f60608284031215614797576147966146ae565b5b6147a16060614710565b90505f6147b084828501614744565b5f8301525060206147c38482850161476e565b60208301525060406147d78482850161476e565b60408301525092915050565b5f805f60e084860312156147fa576147f9613b7f565b5b5f61480786828701613e45565b935050602061481886828701614782565b925050608061482986828701614782565b9150509250925092565b5f8083601f84011261484857614847613e59565b5b8235905067ffffffffffffffff81111561486557614864613e5d565b5b60208301915083602082028301111561488157614880613e61565b5b9250929050565b5f805f80604085870312156148a05761489f613b7f565b5b5f85013567ffffffffffffffff8111156148bd576148bc613b83565b5b6148c98782880161403d565b9450945050602085013567ffffffffffffffff8111156148ec576148eb613b83565b5b6148f887828801614833565b925092505092959194509250565b5f80fd5b5f80fd5b5f80fd5b5f808335600160200384360303811261492e5761492d614906565b5b80840192508235915067ffffffffffffffff8211156149505761494f61490a565b5b60208301925060018202360383131561496c5761496b61490e565b5b509250929050565b61497d81613dd1565b8114614987575f80fd5b50565b5f8135905061499881614974565b92915050565b5f602082840312156149b3576149b2613b7f565b5b5f6149c08482850161498a565b91505092915050565b6149d281613dd1565b82525050565b5f6060820190506149eb5f830186613fea565b6149f860208301856149c9565b614a0560408301846149c9565b949350505050565b5f81905092915050565b828183375f83830152505050565b5f614a308385614a0d565b9350614a3d838584614a17565b82840190509392505050565b5f614a55828486614a25565b91508190509392505050565b614a6a81613e1c565b82525050565b5f602082019050614a835f830184614a61565b92915050565b7f4e487b71000000000000000000000000000000000000000000000000000000005f52603260045260245ffd5b5f60608284031215614acb57614aca613b7f565b5b5f614ad884828501614782565b91505092915050565b5f81519050614aef81614974565b92915050565b5f60208284031215614b0a57614b09613b7f565b5b5f614b1784828501614ae1565b91505092915050565b5f604082019050614b335f830185613fea565b614b4060208301846149c9565b9392505050565b5f602082019050614b5a5f8301846149c9565b92915050565b7f4e487b71000000000000000000000000000000000000000000000000000000005f52602260045260245ffd5b5f6002820490506001821680614ba457607f821691505b602082108103614bb757614bb6614b60565b5b50919050565b5f614bc8838561456f565b9350614bd5838584614a17565b614bde8361423e565b840190509392505050565b5f604082019050614bfc5f830186614a61565b8181036020830152614c0f818486614bbd565b9050949350505050565b5f6020820190508181035f830152614c32818486614bbd565b90509392505050565b5f604082019050614c4e5f830185613fea565b614c5b6020830184613fea565b9392505050565b5f8235600161012003833603038112614c7e57614c7d614906565b5b80830191505092915050565b5f67ffffffffffffffff821115614ca457614ca36146b2565b5b602082029050602081019050919050565b5f80fd5b5f67ffffffffffffffff821115614cd357614cd26146b2565b5b614cdc8261423e565b9050602081019050919050565b5f614cfb614cf684614cb9565b614710565b905082815260208101848484011115614d1757614d16614cb5565b5b614d22848285614a17565b509392505050565b5f82601f830112614d3e57614d3d613e59565b5b8135614d4e848260208601614ce9565b91505092915050565b5f614d69614d6484614c8a565b614710565b90508083825260208201905060208402830185811115614d8c57614d8b613e61565b5b835b81811015614dd357803567ffffffffffffffff811115614db157614db0613e59565b5b808601614dbe8982614d2a565b85526020850194505050602081019050614d8e565b5050509392505050565b5f82601f830112614df157614df0613e59565b5b8135614e01848260208601614d57565b91505092915050565b5f6101208284031215614e2057614e1f6146ae565b5b614e2a60a0614710565b90505f614e3984828501613e45565b5f83015250602082013567ffffffffffffffff811115614e5c57614e5b61472a565b5b614e6884828501614ddd565b602083015250604082013567ffffffffffffffff811115614e8c57614e8b61472a565b5b614e9884828501614d2a565b6040830152506060614eac84828501614782565b60608301525060c0614ec084828501614782565b60808301525092915050565b5f614ed73683614e0a565b9050919050565b5f819050815f5260205f209050919050565b5f6020601f8301049050919050565b5f82821b905092915050565b5f60088302614f3a7fffffffffffffffffffffffffffffffffffffffffffffffffffffffffffffffff82614eff565b614f448683614eff565b95508019841693508086168417925050509392505050565b5f614f76614f71614f6c84613dd1565b613c59565b613dd1565b9050919050565b5f819050919050565b614f8f83614f5c565b614fa3614f9b82614f7d565b848454614f0b565b825550505050565b5f90565b614fb7614fab565b614fc2818484614f86565b505050565b5b81811015614fe557614fda5f82614faf565b600181019050614fc8565b5050565b601f82111561502a57614ffb81614ede565b61500484614ef0565b81016020851015615013578190505b61502761501f85614ef0565b830182614fc7565b50505b505050565b5f82821c905092915050565b5f61504a5f198460080261502f565b1980831691505092915050565b5f615062838361503b565b9150826002028217905092915050565b61507b826141fc565b67ffffffffffffffff811115615094576150936146b2565b5b61509e8254614b8d565b6150a9828285614fe9565b5f60209050601f8311600181146150da575f84156150c8578287015190505b6150d28582615057565b865550615139565b601f1984166150e886614ede565b5f5b8281101561510f578489015182556001820191506020850194506020810190506150ea565b8683101561512c5784890151615128601f89168261503b565b8355505b6001600288020188555050505b505050505050565b606082015f8201516151555f8501826144e1565b50602082015161516860208501826144b4565b50604082015161517b60408501826144b4565b50505050565b5f610100820190506151955f830187614a61565b81810360208301526151a7818661457f565b90506151b66040830185615141565b6151c360a0830184615141565b95945050505050565b5f7fffffffffffffffffffffffffffffffff0000000000000000000000000000000082169050919050565b615200816151cc565b82525050565b5f6020820190506152195f8301846151f7565b92915050565b5f8151905061522d8161472e565b92915050565b5f6020828403121561524857615247613b7f565b5b5f6152558482850161521f565b91505092915050565b5f6040820190506152715f830185614a61565b8181036020830152615283818461457f565b90509392505050565b5f60e08201905061529f5f830186614a61565b6152ac6020830185615141565b6152b96080830184615141565b949350505050565b7f4e487b71000000000000000000000000000000000000000000000000000000005f52601160045260245ffd5b5f6152f882613dd1565b915061530383613dd1565b925082820390508181111561531b5761531a6152c1565b5b92915050565b5f6060820190506153345f830184615141565b92915050565b5f60408201905061534d5f830185614a61565b61535a6020830184613fea565b9392505050565b5f8151905061536f81613cde565b92915050565b5f6020828403121561538a57615389613b7f565b5b5f61539784828501615361565b91505092915050565b7f4e487b71000000000000000000000000000000000000000000000000000000005f52603160045260245ffd5b5f6153d782613dd1565b91506153e283613dd1565b92508282026153f081613dd1565b91508282048414831517615407576154066152c1565b5b5092915050565b5f61541882613dd1565b915061542383613dd1565b925082820190508082111561543b5761543a6152c1565b5b92915050565b5f6040820190506154545f8301856149c9565b61546160208301846149c9565b9392505050565b5f60608201905061547b5f8301866149c9565b61548860208301856149c9565b6154956040830184613fea565b949350505050565b7f4e487b71000000000000000000000000000000000000000000000000000000005f52601260045260245ffd5b5f6154d482613dd1565b91506154df83613dd1565b9250826154ef576154ee61549d565b5b82820490509291505056fea264697066735822122050d2595864afa0ac75f054f78d41b99b6e2c5e8f3829f02ec9e964ef08bafc8a64736f6c63430008180033","linkReferences":{}},"methodIdentifiers":{"acceptOwnership()":"79ba5097","addRemotePool(uint64,bytes)":"62ddd3c4","applyAllowListUpdates(address[],address[])":"54c8a4f3","applyChainUpdates(uint64[],(uint64,bytes[],bytes,(bool,uint128,uint128),(bool,uint128,uint128))[])":"e8a1da17","getAllowList()":"a7cd63b7","getAllowListEnabled()":"e0351e13","getCurrentInboundRateLimiterState(uint64)":"af58d59f","getCurrentOutboundRateLimiterState(uint64)":"c75eea9c","getRateLimitAdmin()":"6d3d1a58","getRemotePools(uint64)":"a42a7b8b","getRemoteToken(uint64)":"b7946580","getRmnProxy()":"dc0bd971","getRouter()":"b0f479a1","getSupportedChains()":"c4bffe2b","getToken()":"21df0da7","getTokenDecimals()":"24f65ee7","isRemotePool(uint64,bytes)":"4c5ef0ed","isSupportedChain(uint64)":"8926f54f","isSupportedToken(address)":"240028e8","lockOrBurn((bytes,uint64,address,uint256,address))":"9a4575b9","owner()":"8da5cb5b","releaseOrMint((bytes,uint64,address,uint256,address,bytes,bytes,bytes))":"39077537","removeRemotePool(uint64,bytes)":"acfecf91","setChainRateLimiterConfig(uint64,(bool,uint128,uint128),(bool,uint128,uint128))":"cf7401f3","setChainRateLimiterConfigs(uint64[],(bool,uint128,uint128)[],(bool,uint128,uint128)[])":"962d4020","setRateLimitAdmin(address)":"7d54534e","setRouter(address)":"c0d78655","supportsInterface(bytes4)":"01ffc9a7","transferOwnership(address)":"f2fde38b"},"id":65}