{"abi":[{"type":"constructor","inputs":[],"stateMutability":"nonpayable"},{"type":"function","name":"DEFAULT_ADMIN_ROLE","inputs":[],"outputs":[{"name":"","type":"bytes32","internalType":"bytes32"}],"stateMutability":"view"},{"type":"function","name":"allowance","inputs":[{"name":"owner","type":"address","internalType":"address"},{"name":"spender","type":"address","internalType":"address"}],"outputs":[{"name":"","type":"uint256","internalType":"uint256"}],"stateMutability":"view"},{"type":"function","name":"approve","inputs":[{"name":"spender","type":"address","internalType":"address"},{"name":"value","type":"uint256","internalType":"uint256"}],"outputs":[{"name":"","type":"bool","internalType":"bool"}],"stateMutability":"nonpayable"},{"type":"function","name":"balanceOf","inputs":[{"name":"_user","type":"address","internalType":"address"}],"outputs":[{"name":"","type":"uint256","internalType":"uint256"}],"stateMutability":"view"},{"type":"function","name":"burn","inputs":[{"name":"_from","type":"address","internalType":"address"},{"name":"_value","type":"uint256","internalType":"uint256"}],"outputs":[],"stateMutability":"nonpayable"},{"type":"function","name":"decimals","inputs":[],"outputs":[{"name":"","type":"uint8","internalType":"uint8"}],"stateMutability":"view"},{"type":"function","name":"getInterestRate","inputs":[],"outputs":[{"name":"","type":"uint256","internalType":"uint256"}],"stateMutability":"view"},{"type":"function","name":"getRoleAdmin","inputs":[{"name":"role","type":"bytes32","internalType":"bytes32"}],"outputs":[{"name":"","type":"bytes32","internalType":"bytes32"}],"stateMutability":"view"},{"type":"function","name":"getUserInterestRate","inputs":[{"name":"_user","type":"address","internalType":"address"}],"outputs":[{"name":"","type":"uint256","internalType":"uint256"}],"stateMutability":"view"},{"type":"function","name":"grantMintAndBurnRole","inputs":[{"name":"_address","type":"address","internalType":"address"}],"outputs":[],"stateMutability":"nonpayable"},{"type":"function","name":"grantRole","inputs":[{"name":"role","type":"bytes32","internalType":"bytes32"},{"name":"account","type":"address","internalType":"address"}],"outputs":[],"stateMutability":"nonpayable"},{"type":"function","name":"hasRole","inputs":[{"name":"role","type":"bytes32","internalType":"bytes32"},{"name":"account","type":"address","internalType":"address"}],"outputs":[{"name":"","type":"bool","internalType":"bool"}],"stateMutability":"view"},{"type":"function","name":"mint","inputs":[{"name":"_to","type":"address","internalType":"address"},{"name":"_value","type":"uint256","internalType":"uint256"},{"name":"_userInterestRate","type":"uint256","internalType":"uint256"}],"outputs":[],"stateMutability":"nonpayable"},{"type":"function","name":"name","inputs":[],"outputs":[{"name":"","type":"string","internalType":"string"}],"stateMutability":"view"},{"type":"function","name":"owner","inputs":[],"outputs":[{"name":"","type":"address","internalType":"address"}],"stateMutability":"view"},{"type":"function","name":"principalBalanceOf","inputs":[{"name":"_user","type":"address","internalType":"address"}],"outputs":[{"name":"","type":"uint256","internalType":"uint256"}],"stateMutability":"view"},{"type":"function","name":"renounceOwnership","inputs":[],"outputs":[],"stateMutability":"nonpayable"},{"type":"function","name":"renounceRole","inputs":[{"name":"role","type":"bytes32","internalType":"bytes32"},{"name":"callerConfirmation","type":"address","internalType":"address"}],"outputs":[],"stateMutability":"nonpayable"},{"type":"function","name":"revokeRole","inputs":[{"name":"role","type":"bytes32","internalType":"bytes32"},{"name":"account","type":"address","internalType":"address"}],"outputs":[],"stateMutability":"nonpayable"},{"type":"function","name":"setInterestRate","inputs":[{"name":"_newInterestRate","type":"uint256","internalType":"uint256"}],"outputs":[],"stateMutability":"nonpayable"},{"type":"function","name":"supportsInterface","inputs":[{"name":"interfaceId","type":"bytes4","internalType":"bytes4"}],"outputs":[{"name":"","type":"bool","internalType":"bool"}],"stateMutability":"view"},{"type":"function","name":"symbol","inputs":[],"outputs":[{"name":"","type":"string","internalType":"string"}],"stateMutability":"view"},{"type":"function","name":"totalSupply","inputs":[],"outputs":[{"name":"","type":"uint256","internalType":"uint256"}],"stateMutability":"view"},{"type":"function","name":"transfer","inputs":[{"name":"_recipient","type":"address","internalType":"address"},{"name":"_amount","type":"uint256","internalType":"uint256"}],"outputs":[{"name":"","type":"bool","internalType":"bool"}],"stateMutability":"nonpayable"},{"type":"function","name":"transferFrom","inputs":[{"name":"_sender","type":"address","internalType":"address"},{"name":"_recipient","type":"address","internalType":"address"},{"name":"_amount","type":"uint256","internalType":"uint256"}],"outputs":[{"name":"","type":"bool","internalType":"bool"}],"stateMutability":"nonpayable"},{"type":"function","name":"transferOwnership","inputs":[{"name":"newOwner","type":"address","internalType":"address"}],"outputs":[],"stateMutability":"nonpayable"},{"type":"event","name":"Approval","inputs":[{"name":"owner","type":"address","indexed":true,"internalType":"address"},{"name":"spender","type":"address","indexed":true,"internalType":"address"},{"name":"value","type":"uint256","indexed":false,"internalType":"uint256"}],"anonymous":false},{"type":"event","name":"InterestRateSet","inputs":[{"name":"newInterestRate","type":"uint256","indexed":false,"internalType":"uint256"}],"anonymous":false},{"type":"event","name":"OwnershipTransferred","inputs":[{"name":"previousOwner","type":"address","indexed":true,"internalType":"address"},{"name":"newOwner","type":"address","indexed":true,"internalType":"address"}],"anonymous":false},{"type":"event","name":"RoleAdminChanged","inputs":[{"name":"role","type":"bytes32","indexed":true,"internalType":"bytes32"},{"name":"previousAdminRole","type":"bytes32","indexed":true,"internalType":"bytes32"},{"name":"newAdminRole","type":"bytes32","indexed":true,"internalType":"bytes32"}],"anonymous":false},{"type":"event","name":"RoleGranted","inputs":[{"name":"role","type":"bytes32","indexed":true,"internalType":"bytes32"},{"name":"account","type":"address","indexed":true,"internalType":"address"},{"name":"sender","type":"address","indexed":true,"internalType":"address"}],"anonymous":false},{"type":"event","name":"RoleRevoked","inputs":[{"name":"role","type":"bytes32","indexed":true,"internalType":"bytes32"},{"name":"account","type":"address","indexed":true,"internalType":"address"},{"name":"sender","type":"address","indexed":true,"internalType":"address"}],"anonymous":false},{"type":"event","name":"Transfer","inputs":[{"name":"from","type":"address","indexed":true,"internalType":"address"},{"name":"to","type":"address","indexed":true,"internalType":"address"},{"name":"value","type":"uint256","indexed":false,"internalType":"uint256"}],"anonymous":false},{"type":"error","name":"AccessControlBadConfirmation","inputs":[]},{"type":"error","name":"AccessControlUnauthorizedAccount","inputs":[{"name":"account","type":"address","internalType":"address"},{"name":"neededRole","type":"bytes32","internalType":"bytes32"}]},{"type":"error","name":"ERC20InsufficientAllowance","inputs":[{"name":"spender","type":"address","internalType":"address"},{"name":"allowance","type":"uint256","internalType":"uint256"},{"name":"needed","type":"uint256","internalType":"uint256"}]},{"type":"error","name":"ERC20InsufficientBalance","inputs":[{"name":"sender","type":"address","internalType":"address"},{"name":"balance","type":"uint256","internalType":"uint256"},{"name":"needed","type":"uint256","internalType":"uint256"}]},{"type":"error","name":"ERC20InvalidApprover","inputs":[{"name":"approver","type":"address","internalType":"address"}]},{"type":"error","name":"ERC20InvalidReceiver","inputs":[{"name":"receiver","type":"address","internalType":"address"}]},{"type":"error","name":"ERC20InvalidSender","inputs":[{"name":"sender","type":"address","internalType":"address"}]},{"type":"error","name":"ERC20InvalidSpender","inputs":[{"name":"spender","type":"address","internalType":"address"}]},{"type":"error","name":"OwnableInvalidOwner","inputs":[{"name":"owner","type":"address","internalType":"address"}]},{"type":"error","name":"OwnableUnauthorizedAccount","inputs":[{"name":"account","type":"address","internalType":"address"}]},{"type":"error","name":"RebaseToken__InterestRateCanOnlyDecrease","inputs":[{"name":"currentInterestRate","type":"uint256","internalType":"uint256"},{"name":"newInterestRate","type":"uint256","internalType":"uint256"}]}],"bytecode":{"object":"0x6080604052640ba43b740060095534801562000019575f80fd5b50336040518060400160405280600b81526020017f526562617365546f6b656e0000000000000000000000000000000000000000008152506040518060400160405280600381526020017f524254000000000000000000000000000000000000000000000000000000000081525081600390816200009891906200045f565b508060049081620000aa91906200045f565b5050505f73ffffffffffffffffffffffffffffffffffffffff168173ffffffffffffffffffffffffffffffffffffffff160362000120575f6040517f1e4fbdf700000000000000000000000000000000000000000000000000000000815260040162000117919062000586565b60405180910390fd5b62000131816200013860201b60201c565b50620005a1565b5f60055f9054906101000a900473ffffffffffffffffffffffffffffffffffffffff1690508160055f6101000a81548173ffffffffffffffffffffffffffffffffffffffff021916908373ffffffffffffffffffffffffffffffffffffffff1602179055508173ffffffffffffffffffffffffffffffffffffffff168173ffffffffffffffffffffffffffffffffffffffff167f8be0079c531659141344cd1fd0a4f28419497f9722a3daafe3b4186f6b6457e060405160405180910390a35050565b5f81519050919050565b7f4e487b71000000000000000000000000000000000000000000000000000000005f52604160045260245ffd5b7f4e487b71000000000000000000000000000000000000000000000000000000005f52602260045260245ffd5b5f60028204905060018216806200027757607f821691505b6020821081036200028d576200028c62000232565b5b50919050565b5f819050815f5260205f209050919050565b5f6020601f8301049050919050565b5f82821b905092915050565b5f60088302620002f17fffffffffffffffffffffffffffffffffffffffffffffffffffffffffffffffff82620002b4565b620002fd8683620002b4565b95508019841693508086168417925050509392505050565b5f819050919050565b5f819050919050565b5f62000347620003416200033b8462000315565b6200031e565b62000315565b9050919050565b5f819050919050565b620003628362000327565b6200037a62000371826200034e565b848454620002c0565b825550505050565b5f90565b6200039062000382565b6200039d81848462000357565b505050565b5b81811015620003c457620003b85f8262000386565b600181019050620003a3565b5050565b601f8211156200041357620003dd8162000293565b620003e884620002a5565b81016020851015620003f8578190505b620004106200040785620002a5565b830182620003a2565b50505b505050565b5f82821c905092915050565b5f620004355f198460080262000418565b1980831691505092915050565b5f6200044f838362000424565b9150826002028217905092915050565b6200046a82620001fb565b67ffffffffffffffff81111562000486576200048562000205565b5b6200049282546200025f565b6200049f828285620003c8565b5f60209050601f831160018114620004d5575f8415620004c0578287015190505b620004cc858262000442565b8655506200053b565b601f198416620004e58662000293565b5f5b828110156200050e57848901518255600182019150602085019450602081019050620004e7565b868310156200052e57848901516200052a601f89168262000424565b8355505b6001600288020188555050505b505050505050565b5f73ffffffffffffffffffffffffffffffffffffffff82169050919050565b5f6200056e8262000543565b9050919050565b620005808162000562565b82525050565b5f6020820190506200059b5f83018462000575565b92915050565b6120a880620005af5f395ff3fe608060405234801561000f575f80fd5b506004361061018c575f3560e01c806370a08231116100dc5780639dc29fac11610095578063c634dfaa1161006f578063c634dfaa14610494578063d547741f146104c4578063dd62ed3e146104e0578063f2fde38b146105105761018c565b80639dc29fac1461042a578063a217fddf14610446578063a9059cbb146104645761018c565b806370a0823114610368578063715018a6146103985780637cfb3d71146103a25780638da5cb5b146103be57806391d14854146103dc57806395d89b411461040c5761018c565b8063248a9ca31161014957806336568abe1161012357806336568abe146102e25780635257b566146102fe57806357b5e09a1461031c5780635f84f3021461034c5761018c565b8063248a9ca3146102785780632f2ff15d146102a8578063313ce567146102c45761018c565b806301ffc9a71461019057806306fdde03146101c0578063095ea7b3146101de578063156e29f61461020e57806318160ddd1461022a57806323b872dd14610248575b5f80fd5b6101aa60048036038101906101a59190611a12565b61052c565b6040516101b79190611a57565b60405180910390f35b6101c86105a5565b6040516101d59190611afa565b60405180910390f35b6101f860048036038101906101f39190611ba7565b610635565b6040516102059190611a57565b60405180910390f35b61022860048036038101906102239190611be5565b610657565b005b6102326106dc565b60405161023f9190611c44565b60405180910390f35b610262600480360381019061025d9190611c5d565b6106e5565b60405161026f9190611a57565b60405180910390f35b610292600480360381019061028d9190611ce0565b6107ce565b60405161029f9190611d1a565b60405180910390f35b6102c260048036038101906102bd9190611d33565b6107eb565b005b6102cc61080d565b6040516102d99190611d8c565b60405180910390f35b6102fc60048036038101906102f79190611d33565b610815565b005b610306610890565b6040516103139190611c44565b60405180910390f35b61033660048036038101906103319190611da5565b610899565b6040516103439190611c44565b60405180910390f35b61036660048036038101906103619190611dd0565b6108df565b005b610382600480360381019061037d9190611da5565b610972565b60405161038f9190611c44565b60405180910390f35b6103a06109bf565b005b6103bc60048036038101906103b79190611da5565b6109d2565b005b6103c6610a08565b6040516103d39190611e0a565b60405180910390f35b6103f660048036038101906103f19190611d33565b610a30565b6040516104039190611a57565b60405180910390f35b610414610a94565b6040516104219190611afa565b60405180910390f35b610444600480360381019061043f9190611ba7565b610b24565b005b61044e610b66565b60405161045b9190611d1a565b60405180910390f35b61047e60048036038101906104799190611ba7565b610b6c565b60405161048b9190611a57565b60405180910390f35b6104ae60048036038101906104a99190611da5565b610c53565b6040516104bb9190611c44565b60405180910390f35b6104de60048036038101906104d99190611d33565b610c64565b005b6104fa60048036038101906104f59190611e23565b610c86565b6040516105079190611c44565b60405180910390f35b61052a60048036038101906105259190611da5565b610d08565b005b5f7f7965db0b000000000000000000000000000000000000000000000000000000007bffffffffffffffffffffffffffffffffffffffffffffffffffffffff1916827bffffffffffffffffffffffffffffffffffffffffffffffffffffffff1916148061059e575061059d82610d8c565b5b9050919050565b6060600380546105b490611e8e565b80601f01602080910402602001604051908101604052809291908181526020018280546105e090611e8e565b801561062b5780601f106106025761010080835404028352916020019161062b565b820191905f5260205f20905b81548152906001019060200180831161060e57829003601f168201915b5050505050905090565b5f8061063f610df5565b905061064c818585610dfc565b600191505092915050565b7f7429555b03aa5cf08cc5fc0890c97db295c9cec5e6bb1544bcd7fd1430dae3e261068181610e0e565b61068a84610e22565b8160075f8673ffffffffffffffffffffffffffffffffffffffff1673ffffffffffffffffffffffffffffffffffffffff1681526020019081526020015f20819055506106d68484610e9b565b50505050565b5f600254905090565b5f7fffffffffffffffffffffffffffffffffffffffffffffffffffffffffffffffff82036107195761071684610972565b91505b61072284610e22565b61072b83610e22565b5f61073584610972565b036107ba5760075f8573ffffffffffffffffffffffffffffffffffffffff1673ffffffffffffffffffffffffffffffffffffffff1681526020019081526020015f205460075f8573ffffffffffffffffffffffffffffffffffffffff1673ffffffffffffffffffffffffffffffffffffffff1681526020019081526020015f20819055505b6107c5848484610f1a565b90509392505050565b5f60065f8381526020019081526020015f20600101549050919050565b6107f4826107ce565b6107fd81610e0e565b6108078383610f48565b50505050565b5f6012905090565b61081d610df5565b73ffffffffffffffffffffffffffffffffffffffff168173ffffffffffffffffffffffffffffffffffffffff1614610881576040517f6697b23200000000000000000000000000000000000000000000000000000000815260040160405180910390fd5b61088b8282611032565b505050565b5f600954905090565b5f60075f8373ffffffffffffffffffffffffffffffffffffffff1673ffffffffffffffffffffffffffffffffffffffff1681526020019081526020015f20549050919050565b6108e761111c565b600954811061093157600954816040517f16b61960000000000000000000000000000000000000000000000000000000008152600401610928929190611ebe565b60405180910390fd5b806009819055507f532f252238b3b0d2b8c8a257b087fb3fdbdc775e3e0acca8e680a2f36aafa34b816040516109679190611c44565b60405180910390a150565b5f8061097d836111a3565b90505f810361098f575f9150506109ba565b670de0b6b3a76400006109a1846111e8565b826109ac9190611f12565b6109b69190611f80565b9150505b919050565b6109c761111c565b6109d05f611299565b565b6109da61111c565b610a047f7429555b03aa5cf08cc5fc0890c97db295c9cec5e6bb1544bcd7fd1430dae3e282610f48565b5050565b5f60055f9054906101000a900473ffffffffffffffffffffffffffffffffffffffff16905090565b5f60065f8481526020019081526020015f205f015f8373ffffffffffffffffffffffffffffffffffffffff1673ffffffffffffffffffffffffffffffffffffffff1681526020019081526020015f205f9054906101000a900460ff16905092915050565b606060048054610aa390611e8e565b80601f0160208091040260200160405190810160405280929190818152602001828054610acf90611e8e565b8015610b1a5780601f10610af157610100808354040283529160200191610b1a565b820191905f5260205f20905b815481529060010190602001808311610afd57829003601f168201915b5050505050905090565b7f7429555b03aa5cf08cc5fc0890c97db295c9cec5e6bb1544bcd7fd1430dae3e2610b4e81610e0e565b610b5783610e22565b610b61838361135c565b505050565b5f801b81565b5f7fffffffffffffffffffffffffffffffffffffffffffffffffffffffffffffffff8203610ba057610b9d33610972565b91505b610ba933610e22565b610bb283610e22565b5f610bbc84610972565b03610c415760075f3373ffffffffffffffffffffffffffffffffffffffff1673ffffffffffffffffffffffffffffffffffffffff1681526020019081526020015f205460075f8573ffffffffffffffffffffffffffffffffffffffff1673ffffffffffffffffffffffffffffffffffffffff1681526020019081526020015f20819055505b610c4b83836113db565b905092915050565b5f610c5d826111a3565b9050919050565b610c6d826107ce565b610c7681610e0e565b610c808383611032565b50505050565b5f60015f8473ffffffffffffffffffffffffffffffffffffffff1673ffffffffffffffffffffffffffffffffffffffff1681526020019081526020015f205f8373ffffffffffffffffffffffffffffffffffffffff1673ffffffffffffffffffffffffffffffffffffffff1681526020019081526020015f2054905092915050565b610d1061111c565b5f73ffffffffffffffffffffffffffffffffffffffff168173ffffffffffffffffffffffffffffffffffffffff1603610d80575f6040517f1e4fbdf7000000000000000000000000000000000000000000000000000000008152600401610d779190611e0a565b60405180910390fd5b610d8981611299565b50565b5f7f01ffc9a7000000000000000000000000000000000000000000000000000000007bffffffffffffffffffffffffffffffffffffffffffffffffffffffff1916827bffffffffffffffffffffffffffffffffffffffffffffffffffffffff1916149050919050565b5f33905090565b610e0983838360016113fd565b505050565b610e1f81610e1a610df5565b6115cc565b50565b5f610e2c826111a3565b90505f610e3883610972565b90505f8282610e479190611fb0565b9050610e538482610e9b565b4260085f8673ffffffffffffffffffffffffffffffffffffffff1673ffffffffffffffffffffffffffffffffffffffff1681526020019081526020015f208190555050505050565b5f73ffffffffffffffffffffffffffffffffffffffff168273ffffffffffffffffffffffffffffffffffffffff1603610f0b575f6040517fec442f05000000000000000000000000000000000000000000000000000000008152600401610f029190611e0a565b60405180910390fd5b610f165f838361161d565b5050565b5f80610f24610df5565b9050610f31858285611836565b610f3c8585856118c9565b60019150509392505050565b5f610f538383610a30565b61102857600160065f8581526020019081526020015f205f015f8473ffffffffffffffffffffffffffffffffffffffff1673ffffffffffffffffffffffffffffffffffffffff1681526020019081526020015f205f6101000a81548160ff021916908315150217905550610fc5610df5565b73ffffffffffffffffffffffffffffffffffffffff168273ffffffffffffffffffffffffffffffffffffffff16847f2f8788117e7eff1d82e926ec794901d17c78024a50270940304540a733656f0d60405160405180910390a46001905061102c565b5f90505b92915050565b5f61103d8383610a30565b15611112575f60065f8581526020019081526020015f205f015f8473ffffffffffffffffffffffffffffffffffffffff1673ffffffffffffffffffffffffffffffffffffffff1681526020019081526020015f205f6101000a81548160ff0219169083151502179055506110af610df5565b73ffffffffffffffffffffffffffffffffffffffff168273ffffffffffffffffffffffffffffffffffffffff16847ff6391f5c32d9c69d2a47ea670b442974b53935d1edc7fd64eb21e047a839171b60405160405180910390a460019050611116565b5f90505b92915050565b611124610df5565b73ffffffffffffffffffffffffffffffffffffffff16611142610a08565b73ffffffffffffffffffffffffffffffffffffffff16146111a157611165610df5565b6040517f118cdaa70000000000000000000000000000000000000000000000000000000081526004016111989190611e0a565b60405180910390fd5b565b5f805f8373ffffffffffffffffffffffffffffffffffffffff1673ffffffffffffffffffffffffffffffffffffffff1681526020019081526020015f20549050919050565b5f8060085f8473ffffffffffffffffffffffffffffffffffffffff1673ffffffffffffffffffffffffffffffffffffffff1681526020019081526020015f2054426112339190611fb0565b9050670de0b6b3a76400008160075f8673ffffffffffffffffffffffffffffffffffffffff1673ffffffffffffffffffffffffffffffffffffffff1681526020019081526020015f20546112879190611f12565b6112919190611fe3565b915050919050565b5f60055f9054906101000a900473ffffffffffffffffffffffffffffffffffffffff1690508160055f6101000a81548173ffffffffffffffffffffffffffffffffffffffff021916908373ffffffffffffffffffffffffffffffffffffffff1602179055508173ffffffffffffffffffffffffffffffffffffffff168173ffffffffffffffffffffffffffffffffffffffff167f8be0079c531659141344cd1fd0a4f28419497f9722a3daafe3b4186f6b6457e060405160405180910390a35050565b5f73ffffffffffffffffffffffffffffffffffffffff168273ffffffffffffffffffffffffffffffffffffffff16036113cc575f6040517f96c6fd1e0000000000000000000000000000000000000000000000000000000081526004016113c39190611e0a565b60405180910390fd5b6113d7825f8361161d565b5050565b5f806113e5610df5565b90506113f28185856118c9565b600191505092915050565b5f73ffffffffffffffffffffffffffffffffffffffff168473ffffffffffffffffffffffffffffffffffffffff160361146d575f6040517fe602df050000000000000000000000000000000000000000000000000000000081526004016114649190611e0a565b60405180910390fd5b5f73ffffffffffffffffffffffffffffffffffffffff168373ffffffffffffffffffffffffffffffffffffffff16036114dd575f6040517f94280d620000000000000000000000000000000000000000000000000000000081526004016114d49190611e0a565b60405180910390fd5b8160015f8673ffffffffffffffffffffffffffffffffffffffff1673ffffffffffffffffffffffffffffffffffffffff1681526020019081526020015f205f8573ffffffffffffffffffffffffffffffffffffffff1673ffffffffffffffffffffffffffffffffffffffff1681526020019081526020015f208190555080156115c6578273ffffffffffffffffffffffffffffffffffffffff168473ffffffffffffffffffffffffffffffffffffffff167f8c5be1e5ebec7d5bd14f71427d1e84f3dd0314c0f7b2291e5b200ac8c7c3b925846040516115bd9190611c44565b60405180910390a35b50505050565b6115d68282610a30565b6116195780826040517fe2517d3f000000000000000000000000000000000000000000000000000000008152600401611610929190612016565b60405180910390fd5b5050565b5f73ffffffffffffffffffffffffffffffffffffffff168373ffffffffffffffffffffffffffffffffffffffff160361166d578060025f8282546116619190611fe3565b9250508190555061173b565b5f805f8573ffffffffffffffffffffffffffffffffffffffff1673ffffffffffffffffffffffffffffffffffffffff1681526020019081526020015f20549050818110156116f6578381836040517fe450d38c0000000000000000000000000000000000000000000000000000000081526004016116ed9392919061203d565b60405180910390fd5b8181035f808673ffffffffffffffffffffffffffffffffffffffff1673ffffffffffffffffffffffffffffffffffffffff1681526020019081526020015f2081905550505b5f73ffffffffffffffffffffffffffffffffffffffff168273ffffffffffffffffffffffffffffffffffffffff1603611782578060025f82825403925050819055506117cc565b805f808473ffffffffffffffffffffffffffffffffffffffff1673ffffffffffffffffffffffffffffffffffffffff1681526020019081526020015f205f82825401925050819055505b8173ffffffffffffffffffffffffffffffffffffffff168373ffffffffffffffffffffffffffffffffffffffff167fddf252ad1be2c89b69c2b068fc378daa952ba7f163c4a11628f55a4df523b3ef836040516118299190611c44565b60405180910390a3505050565b5f6118418484610c86565b90507fffffffffffffffffffffffffffffffffffffffffffffffffffffffffffffffff8110156118c357818110156118b4578281836040517ffb8f41b20000000000000000000000000000000000000000000000000000000081526004016118ab9392919061203d565b60405180910390fd5b6118c284848484035f6113fd565b5b50505050565b5f73ffffffffffffffffffffffffffffffffffffffff168373ffffffffffffffffffffffffffffffffffffffff1603611939575f6040517f96c6fd1e0000000000000000000000000000000000000000000000000000000081526004016119309190611e0a565b60405180910390fd5b5f73ffffffffffffffffffffffffffffffffffffffff168273ffffffffffffffffffffffffffffffffffffffff16036119a9575f6040517fec442f050000000000000000000000000000000000000000000000000000000081526004016119a09190611e0a565b60405180910390fd5b6119b483838361161d565b505050565b5f80fd5b5f7fffffffff0000000000000000000000000000000000000000000000000000000082169050919050565b6119f1816119bd565b81146119fb575f80fd5b50565b5f81359050611a0c816119e8565b92915050565b5f60208284031215611a2757611a266119b9565b5b5f611a34848285016119fe565b91505092915050565b5f8115159050919050565b611a5181611a3d565b82525050565b5f602082019050611a6a5f830184611a48565b92915050565b5f81519050919050565b5f82825260208201905092915050565b5f5b83811015611aa7578082015181840152602081019050611a8c565b5f8484015250505050565b5f601f19601f8301169050919050565b5f611acc82611a70565b611ad68185611a7a565b9350611ae6818560208601611a8a565b611aef81611ab2565b840191505092915050565b5f6020820190508181035f830152611b128184611ac2565b905092915050565b5f73ffffffffffffffffffffffffffffffffffffffff82169050919050565b5f611b4382611b1a565b9050919050565b611b5381611b39565b8114611b5d575f80fd5b50565b5f81359050611b6e81611b4a565b92915050565b5f819050919050565b611b8681611b74565b8114611b90575f80fd5b50565b5f81359050611ba181611b7d565b92915050565b5f8060408385031215611bbd57611bbc6119b9565b5b5f611bca85828601611b60565b9250506020611bdb85828601611b93565b9150509250929050565b5f805f60608486031215611bfc57611bfb6119b9565b5b5f611c0986828701611b60565b9350506020611c1a86828701611b93565b9250506040611c2b86828701611b93565b9150509250925092565b611c3e81611b74565b82525050565b5f602082019050611c575f830184611c35565b92915050565b5f805f60608486031215611c7457611c736119b9565b5b5f611c8186828701611b60565b9350506020611c9286828701611b60565b9250506040611ca386828701611b93565b9150509250925092565b5f819050919050565b611cbf81611cad565b8114611cc9575f80fd5b50565b5f81359050611cda81611cb6565b92915050565b5f60208284031215611cf557611cf46119b9565b5b5f611d0284828501611ccc565b91505092915050565b611d1481611cad565b82525050565b5f602082019050611d2d5f830184611d0b565b92915050565b5f8060408385031215611d4957611d486119b9565b5b5f611d5685828601611ccc565b9250506020611d6785828601611b60565b9150509250929050565b5f60ff82169050919050565b611d8681611d71565b82525050565b5f602082019050611d9f5f830184611d7d565b92915050565b5f60208284031215611dba57611db96119b9565b5b5f611dc784828501611b60565b91505092915050565b5f60208284031215611de557611de46119b9565b5b5f611df284828501611b93565b91505092915050565b611e0481611b39565b82525050565b5f602082019050611e1d5f830184611dfb565b92915050565b5f8060408385031215611e3957611e386119b9565b5b5f611e4685828601611b60565b9250506020611e5785828601611b60565b9150509250929050565b7f4e487b71000000000000000000000000000000000000000000000000000000005f52602260045260245ffd5b5f6002820490506001821680611ea557607f821691505b602082108103611eb857611eb7611e61565b5b50919050565b5f604082019050611ed15f830185611c35565b611ede6020830184611c35565b9392505050565b7f4e487b71000000000000000000000000000000000000000000000000000000005f52601160045260245ffd5b5f611f1c82611b74565b9150611f2783611b74565b9250828202611f3581611b74565b91508282048414831517611f4c57611f4b611ee5565b5b5092915050565b7f4e487b71000000000000000000000000000000000000000000000000000000005f52601260045260245ffd5b5f611f8a82611b74565b9150611f9583611b74565b925082611fa557611fa4611f53565b5b828204905092915050565b5f611fba82611b74565b9150611fc583611b74565b9250828203905081811115611fdd57611fdc611ee5565b5b92915050565b5f611fed82611b74565b9150611ff883611b74565b92508282019050808211156120105761200f611ee5565b5b92915050565b5f6040820190506120295f830185611dfb565b6120366020830184611d0b565b9392505050565b5f6060820190506120505f830186611dfb565b61205d6020830185611c35565b61206a6040830184611c35565b94935050505056fea26469706673582212205fa464d942b76b627eeddb56c2da58f52dc07cb792f0b20880f1d4d186b686a564736f6c63430008180033","linkReferences":{}},"methodIdentifiers":{"DEFAULT_ADMIN_ROLE()":"a217fddf","allowance(address,address)":"dd62ed3e","approve(address,uint256)":"095ea7b3","balanceOf(address)":"70a08231","burn(address,uint256)":"9dc29fac","decimals()":"313ce567","getInterestRate()":"5257b566","getRoleAdmin(bytes32)":"248a9ca3","getUserInterestRate(address)":"57b5e09a","grantMintAndBurnRole(address)":"7cfb3d71","grantRole(bytes32,address)":"2f2ff15d","hasRole(bytes32,address)":"91d14854","mint(address,uint256,uint256)":"156e29f6","name()":"06fdde03","owner()":"8da5cb5b","principalBalanceOf(address)":"c634dfaa","renounceOwnership()":"715018a6","renounceRole(bytes32,address)":"36568abe","revokeRole(bytes32,address)":"d547741f","setInterestRate(uint256)":"5f84f302","supportsInterface(bytes4)":"01ffc9a7","symbol()":"95d89b41","totalSupply()":"18160ddd","transfer(address,uint256)":"a9059cbb","transferFrom(address,address,uint256)":"23b872dd","transferOwnership(address)":"f2fde38b"},"id":64}