{"abi":[{"type":"function","name":"APTOS_PRECOMPILE_SPACE","inputs":[],"outputs":[{"name":"","type":"uint256","internalType":"uint256"}],"stateMutability":"view"},{"type":"function","name":"CHAIN_FAMILY_SELECTOR_APTOS","inputs":[],"outputs":[{"name":"","type":"bytes4","internalType":"bytes4"}],"stateMutability":"view"},{"type":"function","name":"CHAIN_FAMILY_SELECTOR_EVM","inputs":[],"outputs":[{"name":"","type":"bytes4","internalType":"bytes4"}],"stateMutability":"view"},{"type":"function","name":"CHAIN_FAMILY_SELECTOR_SUI","inputs":[],"outputs":[{"name":"","type":"bytes4","internalType":"bytes4"}],"stateMutability":"view"},{"type":"function","name":"CHAIN_FAMILY_SELECTOR_SVM","inputs":[],"outputs":[{"name":"","type":"bytes4","internalType":"bytes4"}],"stateMutability":"view"},{"type":"function","name":"EVM_PRECOMPILE_SPACE","inputs":[],"outputs":[{"name":"","type":"uint256","internalType":"uint256"}],"stateMutability":"view"},{"type":"function","name":"GAS_ESTIMATION_SENDER","inputs":[],"outputs":[{"name":"","type":"address","internalType":"address"}],"stateMutability":"view"},{"type":"function","name":"GAS_PRICE_BITS","inputs":[],"outputs":[{"name":"","type":"uint8","internalType":"uint8"}],"stateMutability":"view"},{"type":"function","name":"MESSAGE_FIXED_BYTES","inputs":[],"outputs":[{"name":"","type":"uint256","internalType":"uint256"}],"stateMutability":"view"},{"type":"function","name":"MESSAGE_FIXED_BYTES_PER_TOKEN","inputs":[],"outputs":[{"name":"","type":"uint256","internalType":"uint256"}],"stateMutability":"view"},{"type":"error","name":"Invalid32ByteAddress","inputs":[{"name":"encodedAddress","type":"bytes","internalType":"bytes"}]},{"type":"error","name":"InvalidEVMAddress","inputs":[{"name":"encodedAddress","type":"bytes","internalType":"bytes"}]}],"bytecode":{"object":"0x61037c61004e600b8282823980515f1a607314610042577f4e487b71000000000000000000000000000000000000000000000000000000005f525f60045260245ffd5b305f52607381538281f3fe73000000000000000000000000000000000000000030146080604052600436106100a7575f3560e01c80637a4bb2321161006f5780637a4bb23214610141578063958d00991461015f578063a60821ca1461017d578063dc47c58b1461019b578063fb633e9c146101b9576100a7565b806313dd3f64146100ab57806318994e7a146100c9578063192c8288146100e75780632a91a92b14610105578063608c703914610123575b5f80fd5b6100b36101d7565b6040516100c0919061024e565b60405180910390f35b6100d16101dc565b6040516100de919061024e565b60405180910390f35b6100ef6101e2565b6040516100fc919061024e565b60405180910390f35b61010d6101e8565b60405161011a91906102a1565b60405180910390f35b61012b6101f3565b60405161013891906102f9565b60405180910390f35b61014961020a565b604051610156919061032d565b60405180910390f35b61016761020f565b60405161017491906102a1565b60405180910390f35b61018561021a565b60405161019291906102a1565b60405180910390f35b6101a3610225565b6040516101b0919061024e565b60405180910390f35b6101c161022b565b6040516101ce91906102a1565b60405180910390f35b600b81565b6101e081565b61040081565b63ac77ffec60e01b81565b72c11c11c11c11c11c11c11c11c11c11c11c11c181565b607081565b631e10bdc460e01b81565b63c4e0595360e01b81565b61012081565b632812d52c60e01b81565b5f819050919050565b61024881610236565b82525050565b5f6020820190506102615f83018461023f565b92915050565b5f7fffffffff0000000000000000000000000000000000000000000000000000000082169050919050565b61029b81610267565b82525050565b5f6020820190506102b45f830184610292565b92915050565b5f73ffffffffffffffffffffffffffffffffffffffff82169050919050565b5f6102e3826102ba565b9050919050565b6102f3816102d9565b82525050565b5f60208201905061030c5f8301846102ea565b92915050565b5f60ff82169050919050565b61032781610312565b82525050565b5f6020820190506103405f83018461031e565b9291505056fea26469706673582212201125f18b386039822dcd153fcd578b7987c214df12b9f851cef690ea4ab109e264736f6c63430008180033","linkReferences":{}},"methodIdentifiers":{"APTOS_PRECOMPILE_SPACE()":"13dd3f64","CHAIN_FAMILY_SELECTOR_APTOS()":"2a91a92b","CHAIN_FAMILY_SELECTOR_EVM()":"fb633e9c","CHAIN_FAMILY_SELECTOR_SUI()":"a60821ca","CHAIN_FAMILY_SELECTOR_SVM()":"958d0099","EVM_PRECOMPILE_SPACE()":"192c8288","GAS_ESTIMATION_SENDER()":"608c7039","GAS_PRICE_BITS()":"7a4bb232","MESSAGE_FIXED_BYTES()":"18994e7a","MESSAGE_FIXED_BYTES_PER_TOKEN()":"dc47c58b"},"id":8}