{"abi":[{"type":"constructor","inputs":[{"name":"tokenAdminRegistry","type":"address","internalType":"address"}],"stateMutability":"nonpayable"},{"type":"function","name":"registerAccessControlDefaultAdmin","inputs":[{"name":"token","type":"address","internalType":"address"}],"outputs":[],"stateMutability":"nonpayable"},{"type":"function","name":"registerAdminViaGetCCIPAdmin","inputs":[{"name":"token","type":"address","internalType":"address"}],"outputs":[],"stateMutability":"nonpayable"},{"type":"function","name":"registerAdminViaOwner","inputs":[{"name":"token","type":"address","internalType":"address"}],"outputs":[],"stateMutability":"nonpayable"},{"type":"function","name":"typeAndVersion","inputs":[],"outputs":[{"name":"","type":"string","internalType":"string"}],"stateMutability":"view"},{"type":"event","name":"AdministratorRegistered","inputs":[{"name":"token","type":"address","indexed":true,"internalType":"address"},{"name":"administrator","type":"address","indexed":true,"internalType":"address"}],"anonymous":false},{"type":"error","name":"AddressZero","inputs":[]},{"type":"error","name":"CanOnlySelfRegister","inputs":[{"name":"admin","type":"address","internalType":"address"},{"name":"token","type":"address","internalType":"address"}]},{"type":"error","name":"RequiredRoleNotFound","inputs":[{"name":"msgSender","type":"address","internalType":"address"},{"name":"role","type":"bytes32","internalType":"bytes32"},{"name":"token","type":"address","internalType":"address"}]}],"bytecode":{"object":"0x60a060405234801561000f575f80fd5b506040516108f83803806108f88339818101604052810190610031919061012e565b5f73ffffffffffffffffffffffffffffffffffffffff168173ffffffffffffffffffffffffffffffffffffffff1603610096576040517f9fabe1c100000000000000000000000000000000000000000000000000000000815260040160405180910390fd5b8073ffffffffffffffffffffffffffffffffffffffff1660808173ffffffffffffffffffffffffffffffffffffffff168152505050610159565b5f80fd5b5f73ffffffffffffffffffffffffffffffffffffffff82169050919050565b5f6100fd826100d4565b9050919050565b61010d816100f3565b8114610117575f80fd5b50565b5f8151905061012881610104565b92915050565b5f60208284031215610143576101426100d0565b5b5f6101508482850161011a565b91505092915050565b6080516107876101715f395f61039c01526107875ff3fe608060405234801561000f575f80fd5b506004361061004a575f3560e01c8063181f5a771461004e57806369c0081e1461006c57806396ea2f7a14610088578063ff12c354146100a4575b5f80fd5b6100566100c0565b604051610063919061050a565b60405180910390f35b61008660048036038101906100819190610588565b6100f9565b005b6100a2600480360381019061009d9190610588565b610236565b005b6100be60048036038101906100b99190610588565b6102af565b005b6040518060400160405280601f81526020017f52656769737472794d6f64756c654f776e6572437573746f6d20312e362e300081525081565b5f8173ffffffffffffffffffffffffffffffffffffffff1663a217fddf6040518163ffffffff1660e01b8152600401602060405180830381865afa158015610143573d5f803e3d5ffd5b505050506040513d601f19601f8201168201806040525081019061016791906105e6565b90508173ffffffffffffffffffffffffffffffffffffffff166391d1485482336040518363ffffffff1660e01b81526004016101a492919061062f565b602060405180830381865afa1580156101bf573d5f803e3d5ffd5b505050506040513d601f19601f820116820180604052508101906101e3919061068b565b610228573381836040517f86e0b34400000000000000000000000000000000000000000000000000000000815260040161021f939291906106b6565b60405180910390fd5b6102328233610328565b5050565b6102ac818273ffffffffffffffffffffffffffffffffffffffff16638da5cb5b6040518163ffffffff1660e01b8152600401602060405180830381865afa158015610283573d5f803e3d5ffd5b505050506040513d601f19601f820116820180604052508101906102a791906106ff565b610328565b50565b610325818273ffffffffffffffffffffffffffffffffffffffff16638fd6a6ac6040518163ffffffff1660e01b8152600401602060405180830381865afa1580156102fc573d5f803e3d5ffd5b505050506040513d601f19601f8201168201806040525081019061032091906106ff565b610328565b50565b3373ffffffffffffffffffffffffffffffffffffffff168173ffffffffffffffffffffffffffffffffffffffff161461039a5780826040517fc454d18200000000000000000000000000000000000000000000000000000000815260040161039192919061072a565b60405180910390fd5b7f000000000000000000000000000000000000000000000000000000000000000073ffffffffffffffffffffffffffffffffffffffff1663e677ae3783836040518363ffffffff1660e01b81526004016103f592919061072a565b5f604051808303815f87803b15801561040c575f80fd5b505af115801561041e573d5f803e3d5ffd5b505050508073ffffffffffffffffffffffffffffffffffffffff168273ffffffffffffffffffffffffffffffffffffffff167f09590fb70af4b833346363965e043a9339e8c7d378b8a2b903c75c277faec4f960405160405180910390a35050565b5f81519050919050565b5f82825260208201905092915050565b5f5b838110156104b757808201518184015260208101905061049c565b5f8484015250505050565b5f601f19601f8301169050919050565b5f6104dc82610480565b6104e6818561048a565b93506104f681856020860161049a565b6104ff816104c2565b840191505092915050565b5f6020820190508181035f83015261052281846104d2565b905092915050565b5f80fd5b5f73ffffffffffffffffffffffffffffffffffffffff82169050919050565b5f6105578261052e565b9050919050565b6105678161054d565b8114610571575f80fd5b50565b5f813590506105828161055e565b92915050565b5f6020828403121561059d5761059c61052a565b5b5f6105aa84828501610574565b91505092915050565b5f819050919050565b6105c5816105b3565b81146105cf575f80fd5b50565b5f815190506105e0816105bc565b92915050565b5f602082840312156105fb576105fa61052a565b5b5f610608848285016105d2565b91505092915050565b61061a816105b3565b82525050565b6106298161054d565b82525050565b5f6040820190506106425f830185610611565b61064f6020830184610620565b9392505050565b5f8115159050919050565b61066a81610656565b8114610674575f80fd5b50565b5f8151905061068581610661565b92915050565b5f602082840312156106a05761069f61052a565b5b5f6106ad84828501610677565b91505092915050565b5f6060820190506106c95f830186610620565b6106d66020830185610611565b6106e36040830184610620565b949350505050565b5f815190506106f98161055e565b92915050565b5f602082840312156107145761071361052a565b5b5f610721848285016106eb565b91505092915050565b5f60408201905061073d5f830185610620565b61074a6020830184610620565b939250505056fea2646970667358221220d5648196b3eacf7da7bb2ecac3c2438e47eb95de5d47b982ab614988a55f0c1e64736f6c63430008180033","linkReferences":{}},"methodIdentifiers":{"registerAccessControlDefaultAdmin(address)":"69c0081e","registerAdminViaGetCCIPAdmin(address)":"ff12c354","registerAdminViaOwner(address)":"96ea2f7a","typeAndVersion()":"181f5a77"},"id":13}