{"abi":[{"type":"function","name":"CCIP_LOCK_OR_BURN_V1_RET_BYTES","inputs":[],"outputs":[{"name":"","type":"uint32","internalType":"uint32"}],"stateMutability":"view"},{"type":"function","name":"CCIP_POOL_V1","inputs":[],"outputs":[{"name":"","type":"bytes4","internalType":"bytes4"}],"stateMutability":"view"},{"type":"function","name":"CCIP_POOL_V1_RET_BYTES","inputs":[],"outputs":[{"name":"","type":"uint16","internalType":"uint16"}],"stateMutability":"view"}],"bytecode":{"object":"0x6101b261004e600b8282823980515f1a607314610042577f4e487b71000000000000000000000000000000000000000000000000000000005f525f60045260245ffd5b305f52607381538281f3fe730000000000000000000000000000000000000000301460806040526004361061004a575f3560e01c80630ccb1dfe1461004e578063b7f419201461006c578063cd30939a1461008a575b5f80fd5b6100566100a8565b60405161006391906100db565b60405180910390f35b6100746100ad565b6040516100819190610110565b60405180910390f35b6100926100b2565b60405161009f9190610163565b60405180910390f35b602081565b602081565b63aff2afbf60e01b81565b5f63ffffffff82169050919050565b6100d5816100bd565b82525050565b5f6020820190506100ee5f8301846100cc565b92915050565b5f61ffff82169050919050565b61010a816100f4565b82525050565b5f6020820190506101235f830184610101565b92915050565b5f7fffffffff0000000000000000000000000000000000000000000000000000000082169050919050565b61015d81610129565b82525050565b5f6020820190506101765f830184610154565b9291505056fea26469706673582212202c66591fd4e690fb5c8bcf8d6cb93dc58fa009ab53b88cab0ffa64cfc13e613e64736f6c63430008180033","linkReferences":{}},"methodIdentifiers":{"CCIP_LOCK_OR_BURN_V1_RET_BYTES()":"0ccb1dfe","CCIP_POOL_V1()":"cd30939a","CCIP_POOL_V1_RET_BYTES()":"b7f41920"},"id":10}